:020000040000FA
:10000000682A0020150400001D0400001F040000E1
:10001000210400002304000025040000000000006B
:1000200000000000000000000000000027040000A5
:1000300029040000000000002B0400002D04000033
:100040002F0400002F040000890800002F04000086
:100050002F0400002F0400002F0400002F040000D4
:100060002F0400002F0400002F0400002F040000C4
:100070002F0400002F0400002F0400002F040000B4
:100080002F0400002F0400002F0400002F040000A4
:100090002F0400002F0400002F0400002F04000094
:1000A0002F0400002F0400002F0400002F04000084
:1000B0002F0400002F0400000000000000000000DA
:1000C0002F0400002F0400002F0400002F04000064
:1000D0002F0400002F0400002F0400000000000087
:1000E0000000000000000000000000000000000010
:1000F0000000000000000000000000000000000000
:1001000000000000000000000000000000000000EF
:1001100000000000000000000000000000000000DF
:10040000DFF80CD000F07EF8004800477D0C0000BB
:10041000682A00200648804706480047FEE7FEE7B6
:10042000FEE7FEE7FEE7FEE7FEE7FEE7FEE7FEE7A4
:10043000ED0500000104000040EA01039B0703D022
:1004400009E008C9121F08C0042AFAD203E011F813
:10045000013B00F8013B521EF9D2704730B505460A
:100460000020034600E05B1C934205D2EC5CC85CB4
:10047000201A01D1002CF6D130BD70B5064600F02F
:1004800011FA046805460A220021304600F002F8FD
:100490002C6070BD2DE9F04791460F46804604461A
:1004A000002614F8015B2DB100F03EF80068405DB5
:1004B000C007F6D12B2D02D02D2D18D0641E4A4630
:1004C0003946204600F034F827B13968A14201D1FD
:1004D000C7F8008071054FF002040BD54042002898
:1004E00003DD00F0DFF90460A007BDE8F08746F403
:1004F0008066E4E70028F8DA00F0D4F904606FF0D1
:100500000040F2E7064C074D06E0E06840F00103CA
:1005100094E8070098471034AC42F6D3FFF774FF15
:10052000E0190000001A000000487047DC190000C4
:100530002DE9F05F82460078002715468B460AF1C8
:100540000104B946302801D09DB113E014F8010B25
:100550000127782803D0582801D045B10AE00DB111
:10056000102D07D10027102514F8010B02E00825F3
:1005700000E00A250026B0460EE005FB080005FB5A
:1005800006F1012701EB10461FFA80F8B6F5803F0F
:1005900000D3B94614F8010B294600F018F80028DA
:1005A000EBDABBF1000F05D00FB1641E00E054463A
:1005B000CBF80040B9F1000F06D000F073F902212A
:1005C0000160C81EBDE8F09F48EA0640FAE73A28F5
:1005D00000D2303820F02002412A01D3A2F13700A6
:1005E000884201D34FF0FF3070470000F0B59848C3
:1005F0000023021D01780125101D4FF080560629A9
:1006000007D11478240704D10478C4F30314032C0D
:1006100002D0062904D00FE08F4F8E4C7C670EE08D
:100620001478240708D10478C4F30314032C06D0EB
:10063000042C04D0052C02D0062907D00EE0D6F8F1
:100640004442864FC4F342343C6002E014782407ED
:1006500004D10478C4F30314032C02D0062906D075
:1006600011E07F4C276827F0807727600EE0147830
:10067000240708D10478C4F30314032C06D0042CF7
:1006800004D0052C02D006290AD011E04FF0804496
:10069000C4F80C31C4F81031704C241F236002E000
:1006A0001478240704D10478C4F30314032C02D073
:1006B000062905D00CE0694F032464373C600AE04A
:1006C0001478240704D10478C4F30314032C02D053
:1006D00006290DD014E0634F05243C60614C78344A
:1006E0002560604C083423603F243F1D3C6002E0DD
:1006F0001478240704D10478C4F30314052C02D021
:10070000062957D068E058490968584A1160564987
:10071000091D0968121D1160534908310968121D2D
:10072000116051490C310968121D11604E49103198
:100730000968121D11604C4914310968121D1160BD
:10074000494918310968494A2032116046491C312B
:100750000968121D1160444920310968121D116099
:10076000414924310968121D11603F492831096847
:10077000121D11603C492C310968121D11603A4963
:1007800030310968394A40321160374934310968DB
:10079000121D1160344938310968121D1160324947
:1007A0003C310968121D11602F4940310968121D42
:1007B000116002E0117809070ED10078C0F3031030
:1007C000032803D0042801D0052805D1D6F8580203
:1007D000274900F04F00086021487438016841F44F
:1007E00070010160BFF34F8FBFF36F8F4FF0102187
:1007F000D1F80002002803DBD1F80402002822DA35
:100800001C4A15601C480468002CFCD01524C1F853
:1008100000420568002DFCD0C1F80442016800299F
:10082000FCD0136001680029FCD0BFF34F8F0C4847
:10083000F0380168114A01F4E06111430160BFF32F
:100840004F8F00BFFDE70F490D480860F0BD000065
:10085000E00F00F00DF0ADBA00C007403C050040CD
:10086000FCED00E0105600400404001020C50040DC
:10087000E40E004004E5014000E401400400FA05F4
:100880000090D003200000200448017F0448002984
:10089000024901D000F0C8BF00F0CCBE280A0020F9
:1008A00000200040004870472400002002E008C8F3
:1008B000121F08C1002AFAD170477047002001E0DA
:1008C00001C1121F002AFBD170470000BFF34F8FF8
:1008D00005480168054A01F4E06111430160BFF376
:1008E0004F8F00BFFDE700000CED00E00400FA05AB
:1008F0000EB500210091CDE901106A4644F20100D5
:10090000FFF7E4FF0EBDC16881600020704710B59D
:100910008268C368934203D000F061F9002010BDE3
:10092000052010BD29B112B1531E134203D0092076
:1009300070470E2070470160838000218160C16094
:100940000846704710B58268C3689A1A83889A422D
:1009500003D800F04EF9002010BD042010BD0000A7
:1009600010B50648FFF7CFFF002805D10348BDE8C2
:1009700010401030FFF7C7BF10BD0000480A00202C
:1009800070B50A4E01460A48B578FFF7C0FF044625
:100990004DB10020B070711C0122C81D00F03CFA5E
:1009A00008B1FFF7A5FF204670BD00001000002031
:1009B000480A0020F0B5284E89B01F460D000446B5
:1009C00072603BD0A888296882B22448FFF7AAFF4A
:1009D000002834D1A889A96882B220481030FFF7D6
:1009E000A1FF00282BD120221D496846FFF724FDD6
:1009F00060690690207C00B101208DF814008DF80C
:100A00001C70607C00B10E208DF81500E06802902B
:100A1000A068039020680190606800900E48114A19
:100A20006946083000F0C4F9002808D1B070206889
:100A3000401C04D09DF81D0018B106E0072009B045
:100A4000F0BD0548083000F03FFA03490122491C77
:100A5000C81D00F0E1F9F2E710000020480A00206C
:100A600038190000C513000010B501460B48FFF708
:100A700069FF040010D10A4800F070FB60B9084912
:100A800006480839FFF743FF30B905490122083904
:100A9000034800F0DDFA0446204610BD580A002045
:100AA000180000202DE9F041064608680C46411C5C
:100AB0004FF0A0474FF0010506D005FA00F1C7F846
:100AC0000815206800F083FB6068411C02D00021FB
:100AD00000F074FB3079204901EB4010A169007FE0
:100AE00000283068C0F8241525D0607D227D31684B
:100AF0001043C1F86C05D4E900123068C0F80C1539
:100B0000C0F8142524E0A068411C02D0002100F0A8
:100B100055FBE068411C05D08540C7F80855E068E2
:100B200000F055FBD4E902123068C0F80825C0F87F
:100B30001015BDE8F081607D217D32680843C2F860
:100B40006C05D4E900123068C0F81425C0F80C1503
:100B5000207D0128D7D0ECE7280A002007490B5C4C
:100B60004FF0A041D1F804250120984020EA02036B
:100B7000C1F808351040C1F80C0570473019000065
:100B80000249085C012100F02CBB00003019000074
:100B90000249085C002100F024BB0000301900006D
:100BA0007CB50024084E25460122305D00950023C7
:100BB0001146019500F0DEFA641C042CF4D3BDE864
:100BC0007C4000F003B800003019000010B500248C
:100BD0002046FFF7D5FF641C042CF9D310BD8268B2
:100BE00083881A4003689A5C0A708168491C816096
:100BF0007047C26883881A4003689954C168491CC9
:100C0000C160704770B50E460446007918494FF42C
:100C1000A27501EB4010017F2068A1B14FF48871EB
:100C200000F000FB4FF49071206800F0FBFA4FF4E5
:100C30009271206800F0F6FA2946206800F0F2FA76
:100C40000C49206809E04FF48E7100F0DAFA294669
:100C5000206800F0D6FA08492068C0F8041320681C
:100C600000F09AF83146BDE8704000F079B8000015
:100C7000280A002010030200800002008AB0FFF75B
:100C80008FFF18220F496846FFF7D6FB0E480690E3
:100C90004FF4006007900D4808904FF400700990E1
:100CA00007230B4A06A96846FFF784FE08B1FFF741
:100CB0001FFEFFF755FE00F0BBFA00BF00F04AFD33
:100CC000FCE7000018190000280000202808002078
:100CD000B113000000283ED01F49204A096800BF18
:100CE00000BF00BF00BF00BF00BF00BF00BF9142F8
:100CF0002FD000BF00BF00BF00BF00BF00BF00BFBC
:100D000000BF00BF00BF00BF00BF00BF00BF00BFEB
:100D100000BF00BF00BF00BF00BF00BF00BF00BFDB
:100D200000BF00BF00BF00BF00BF00BF00BF00BFCB
:100D300000BF00BF00BF00BF00BF00BF00BF00BFBB
:100D400000BF00BF00BF00BF00BF00BF00BF00BFAB
:100D500000BF401EC3D17047200000200024F400D3
:100D60004907090E002806DA00F00F0202F1E0221E
:100D700082F8141D03E000F1E02282F8001400F074
:100D80001F02012191404009800000F1E020C0F8DD
:100D90008012C0F800117047000B40B2704701216B
:100DA000B1EB507F01D10120704700207047000057
:100DB0002DE9F04105460079164F904607EB4014A7
:100DC0000E46E07E10B10820BDE8F081707F2077EC
:100DD0002846FFF767FE5FEA08006060316921601E
:100DE00003D0317F2846FFF70DFF287907EB40102D
:100DF000007F0028286801D0082100E00421C0F805
:100E000000150020E0752076A0750121E176A0761E
:100E1000DAE70000280A00202DE9F04105460079B4
:100E2000284E904606EB40140F46207F18B1084626
:100E3000FFF7B5FF80B1626800234FF404704FF4F0
:100E4000017172B12A7906EB4212127F002A2A68D8
:100E500005D0C2F8080304E01020BDE8F081C2F814
:100E60000813E27DB2B1227E7AB162685AB12A7962
:100E700006EB4212127F1AB12968C1F8040302E09E
:100E80002868C0F804131120E7E72761012384F8DC
:100E9000188005E084F817800020E76060762076EF
:100EA0002879424606EB40103946007F0028284644
:100EB00003D0BDE8F04100F073B8BDE8F04100F0A8
:100EC0001BB80000280A002070B504460079094DBF
:100ED00005EB4010017F00290AD1807E002807D150
:100EE000204600F018FA2179012005EB411188769F
:100EF00070BD0000280A00202DE9F05F044600794B
:100F0000264901EB4015A87E184302D1204600F087
:100F100002FA68680028206806D04FF40171C0F812
:100F200004130020BDE8F09F4FF4A276314600F094
:100F300068F9B1464FF4927A4FF4847B51462068A9
:100F400000F05AF906465946206800F055F98046E7
:100F50004946206800F050F9074648EA0700304348
:100F6000ECD056EA070007D12946206800F0AEF918
:100F7000E87D697E8842E1D80020E8750EB1032043
:100F8000D0E70FB10F20CDE7A97E0120002921680D
:100F900001D00860C5E74860C3E70000280A0020C8
:100FA0002DE9F05F894604464FF488759A469046CD
:100FB00000260068294600F035F94FF4A27739463B
:100FC000206800F02FF92068C0F83495C0F8388503
:100FD0002068BAF1000F14D0D0F8001241F02001BF
:100FE000C0F800122179DFF8648008EB41104068F6
:100FF00050B120684FF40471C0F804133046BDE8C6
:10100000F09F01210160EDE7AA46B9464FF4927BBB
:101010005146206800F001F907464946206800F073
:10102000FCF805465946206800F0F7F8014647EA03
:1010300005000843ECD02379002208EB4310C27569
:1010400001B10326002DD9D00F26D7E7280A0020AA
:101050002DE9F047054600793F4E904606EB4014D7
:101060000F46207F18B10846FFF799FE30B1284699
:1010700000F074F820B11120BDE8F0871020FBE7E4
:1010800084F81680A7600027A78228794FF001080E
:1010900006EB40143E46207F0028286825D04FF4F8
:1010A0009079494600F0BEF84FF4AC7A5146286872
:1010B00000F0B8F82868A17DA268C0F84425C0F8FF
:1010C00048152868C0F808806068F0B94946286863
:1010D00000F0A3F880465146286800F09EF858EAD0
:1010E0000001F3D058BBA7750FE04FF48E7A51463C
:1010F00000F087F82868C0F808802146286800F0CA
:1011000039F961684FF4807089B13046B4E75146CF
:10111000286800F071F810B9A08A4845F7D1A08A74
:10112000484505D02146286800F024F900E08146B2
:10113000A08AA17D8842EAD3A08A484501D10F2622
:10114000D1E75146286800F057F80028F9D0286800
:10115000C0F80C80C7E70000280A00200079044985
:1011600001EB4010807D002800D001207047000076
:10117000280A002070B541EA4201DDE904564FF02B
:10118000A04441EA830141EA052104EB800041EAE1
:101190000641C0F8001770BD70B541EA4201DDE9B3
:1011A00004564FF0A04441EA830141EA052104EBD3
:1011B000800041EA0641C0F8001770BD1CB500224E
:1011C0000B46009211460192FFF7E6FF1CBD1CB5CD
:1011D000002100910B46012201911146FFF7DCFF2F
:1011E0001CBD01224FF0A043824011B1C3F8082575
:1011F0007047C3F80C2570474058002800D00120E4
:10120000704708B5002242504058009008BDD0F801
:101210000403084000D0012070474058002800D047
:101220000120704708B5002242504058009008BD88
:1012300006490120086006490320C1F800024FF06A
:10124000E0210220C1F8000170470000FC1F0040AF
:10125000001000401049086010490122C1F8042024
:10126000D1F800010028FBD00023C1F800314A6109
:10127000D1F81C010028FBD0C1F81C3106484030D1
:1012800000680A6100F07F00D1F81021002AFBD02D
:10129000C1F81031704700000815004000100040F0
:1012A000F0B57F2407460025074E07E03846FFF7D4
:1012B000D1FFA04200D3204604466D1CF068854251
:1012C000F4D92046F0BD00000000002070B50546AE
:1012D000C87D0C4600284FF4847128460AD0FFF7D9
:1012E00090FFD5F81805627EE1688854607E401C46
:1012F000607670BDFFF785FFD5F8180570BD1FB586
:1013000001238DF800308DF808100192D0E9001209
:10131000684690471FBD10B5044600684FF49271AF
:10132000FFF76FFF4FF484712068FFF76AFF2068B2
:101330000121016010BD000070B5074D28712C78A7
:1013400005E07F21204600F061FA641CE4B2687871
:101350008442F6D970BD0000000000200449002836
:10136000C8704FF0010001D0FFF712BCFFF708BCB6
:101370000000002070B50C4605464FF48E71FFF753
:1013800040FFA18AA068415CA08A401CA082C5F8E9
:101390001C1570BD1FB500228DF800208DF80810B7
:1013A000816801918275D0E90012684690471FBD9F
:1013B0000178022901D0012902D14068FFF798BACB
:1013C000704700007CB50178244D81B301290BD012
:1013D00002292BD18DF80010C068691C01900122F0
:1013E000C81DFFF719FD2EE0406801781C48FFF783
:1013F000A9FA1B4C012618B18DF80060019006E097
:10140000A068E168814205D000208DF8000069687D
:1014100068468847A068E168081AA188884207D80A
:101420000E490122491CC81DFFF7F6FC7CBD01E0F6
:10143000AE70FBE70A4809491030FFF768FA30B18F
:1014400003208DF80000696868468847EEE7034985
:10145000012201F10800FFF7FBFDE7E71000002083
:10146000480A002070B590B06C462046FFF788FA15
:10147000002832D16D4604E0641C2046FFF780FA54
:1014800030B920780D2803D010B1601B4028F3DB61
:101490006C4604224CA12046FEF7E0FFF8B105227D
:1014A0004BA12046FEF7DAFF002874D004224AA19F
:1014B0002046FEF7D3FF00286ED0092248A120461F
:1014C000FEF7CCFF00286AD0032248A12046FEF791
:1014D000C5FF002801D1FFF741FB10B070BD241DEE
:1014E000062243A12046FEF7B9FF434DD0B10722A3
:1014F00042A12046FEF7B2FF10B30C2241A12046C4
:10150000FEF7ACFF04AE38B30C2242A12046FEF732
:10151000A5FF0028E1D13046FEF7AFFF64282DDAA1
:1015200002462CE0A01DFEF7A8FF4FF47A71884216
:1015300004DA052800DC0520A860CEE70846FBE7B2
:10154000E01DFEF79AFF642804DA012800DC012080
:10155000E860C2E76420FBE73046FEF78EFF69785B
:10156000884201DA024600E00A46012A03DD884289
:1015700002DB084600E001202870AEE764222978EB
:101580008A4205DD642804DB642002E003E003E016
:1015900008466870A1E70120FFF7E0FE9DE70934E7
:1015A000042220A12046FEF759FF50B105221FA1B9
:1015B0002046FEF753FF00288FD100BFFFF7BCFE87
:1015C0008BE70120FAE7000073657420000000003B
:1015D000737461727400000073746F700000000017
:1015E0007363616E20616476200000006C656400A6
:1015F00064656C61792000000000002072657065F0
:10160000617420006368616E6E656C206D696E2088
:10161000000000006368616E6E656C206D6178206B
:1016200000000000747275650000000066616C7354
:10163000650000002DE9FF470C4605464FF4007198
:10164000FFF7E5FD01274FF40178002618B34FF4AA
:10165000927949462846FFF7CFFDE0B14946284632
:10166000FFF7CFFDC5F80883A07E00B96F600220A8
:101670008DF80000D5F88004C5F880040390E07D63
:101680008DF80800E0680190E6752676D4E900122E
:101690006846904727E004212846FFF7B8FD10B3BD
:1016A0004FF484712846FFF7A7FDE0B12146284694
:1016B000FFF70CFEE07D617E884214D1207E38B1B8
:1016C000617EE268E0752069E0602676667607E074
:1016D000A07E00B96F60C5F80883E675617EE26898
:1016E0002046FFF70CFE4FF48E7841462846FFF760
:1016F00083FD88B1A08AA17D884204D22146284674
:10170000FFF738FE08E041462846FFF77AFDA17D45
:1017100011B12046FFF73EFE4FF4A278414628461D
:10172000FFF76AFD002812D041462846FFF769FD01
:10173000A07E00B12F60E07D002808D0E675617EB4
:10174000E26804B02046BDE8F047FFF7D8BDBDE829
:10175000FF87000070B5214C2079A8B10220FFF767
:101760009FFD0146022000F051F81A20FFF798FD76
:1017700001461A2000F04AF85020FFF791FD01467B
:10178000502000F043F80DE0257808E02846FFF7E8
:1017900087FD0146284600F039F86D1CEDB26078EF
:1017A0008542F3D9FFF75EFEA07878B1A0684FF4C8
:1017B000FA71884200D208464FF47A714843FFF725
:1017C00089FA0020A070E078FFF7C8FDA068BDE8A6
:1017D00070404FF47A714843FFF77CBA0000002054
:1017E00010B5094CE178A27891430BD0FFF73CF992
:1017F00000B10120A070002804D0BDE810400120F5
:10180000FFF7BEB910BD00000000002070B504460F
:101810000D46FF20FFF7E4FF2046FFF7E1FF2846D3
:10182000BDE87040FFF7DCBF2DE9FF410C464FF4E7
:10183000927705463946FFF7F0FC0026C0B13946DD
:101840002846FFF7EFFC02208DF80000D5F8800451
:10185000C5F880040390D5F83C058DF80800E068D1
:101860000190E6752676D4E900126846904724E098
:101870004FF4887739462846FFF7CFFCE8B1394660
:101880002846FFF7CFFCD5F83C05C1B2E07D884281
:1018900013D1207E60B1E268D5F8000220F020006C
:1018A000C5F80002207EE0752069E060267601E040
:1018B000E675E2682046FFF722FD4FF4A27739462D
:1018C0002846FFF7AAFC68B139462846FFF7AAFC6C
:1018D000E07D38B1E675D5F83C05E268C1B2204636
:1018E000FFF70DFD4FF4907631462846FFF795FC43
:1018F00000280FD031462846FFF794FCA07D002831
:1019000008D0D5F84C0504B0C1B22046BDE8F0417E
:10191000FFF740BDBDE8FF810800000006000000A1
:1019200005000000070000000000000000E0D701F3
:10193000111213140D0E0F10FFFFFFFFFFFFFFFF2B
:10194000FFFFFFFFFFFFFFFF00000000000000009F
:101950000000D601070100000040404040404040E8
:101960004040414141414140404040404040404072
:101970004040404040404040400502020202020216
:101980000202020202020202022020202020202065
:101990002020200202020202020290909090909079
:1019A0001010101010101010101010101010101037
:1019B00010101010020202020202888888888888AB
:1019C0000808080808080808080808080808080897
:1019D000080808080202020240000000591900002D
:1019E000001A00000000002028000000AC080000E1
:1019F000281A000028000020402A0000BC0800002F
:101A00000050000000000000E8030000010000009A
:101A10000000000000000000002000400000000066
:081A20000090D003000000005B
:0400000500000401F2
:00000001FF
