:020000040000FA
:10100000A02A002011140000191400003112000061
:101010001D1400001F140000211400000000000037
:101020000000000000000000000000002314000089
:1010300025140000000000002714000029140000FF
:10104000651A00002B140000591C00002B1400002E
:101050002B1400002B140000111700002B140000AB
:101060002B140000411C00002B1400002B14000066
:101070002B1400002B1400002B1400002B14000074
:101080002B140000711A00002B1400002B14000018
:10109000A51A00002B1400002B1400002B140000D4
:1010A0002B1400002B1400002B1400002B14000044
:1010B0002B1400002B1400000000000000000000B2
:1010C0002B1400002B1400002B1400002B14000024
:1010D0002B1400002B1400002B140000691C0000CE
:1010E0002B1400002B1400002B1400000000000043
:1010F000000000002B140000000000002B14000072
:1011000000000000000000000000000000000000DF
:1011100000000000000000000000000000000000CF
:1011200000000000000000000000000000000000BF
:1011300000000000000000000000000000000000AF
:10114000000000000000000000000000000000009F
:10115000000000000000000000000000000000008F
:10116000000000000000000000000000000000007F
:10117000000000000000000000000000000000006F
:10118000000000000000000000000000000000005F
:10119000000000000000000000000000000000004F
:1011A000000000000000000000000000000000003F
:1011B000000000000000000000000000000000002F
:1011C000000000000000000000000000000000001F
:1011D000000000000000000000000000000000000F
:1011E00000000000000000000000000000000000FF
:1011F00000000000000000000000000000000000EF
:10120000DFF80CD000F0E6F900480047C1530000B9
:10121000A02A002000B583B002900091019244F210
:10122000010071466A4601F099F803B000BD000064
:10123000094B1EF0040F1CBFEFF309801847EFF3B2
:1012400008800649064A884201D8904202D88D4655
:101250004FF00000184700003D190000A02A0020B0
:10126000A00A002030B450E8012F93B2C48923446F
:101270008489A34228BF1B1B0489A34202BFBFF37A
:101280002F8F002007E0C3EA020340E80134002C5E
:10129000E9D14FF001000A6030BC704750E8012FDF
:1012A000C2EA024240E801210029F7D1704730B478
:1012B00050E8022F1FFAA2F3C488A34202BFBFF373
:1012C0002F8F00200DE0C48923448489A34228BFC6
:1012D0001B1BC2EA034340E80234002CE8D14FF064
:1012E00001000A6030BC704750E8022FC2EA224277
:1012F00040E802210029F7D17047034653E8022F46
:10130000D988B2EB324F4FF0000017BF92B241EADA
:10131000014142EA014104E05A68B2EB324F08BF92
:10132000012043E80212002AE8D1704730B4044695
:1013300054E8000F0D4644E80053002BF8D1156027
:1013400030BC704730B4044654E8000F40EA010551
:1013500044E80053002BF7D1156030BC704730B41F
:10136000044654E8000F00EA010544E80053002B4E
:10137000F7D1156030BC704730B4044654E8000F14
:1013800080EA010544E80053002BF7D1156030BC1A
:10139000704730B4044654E8000F00EB010544E800
:1013A0000053002BF7D1156030BC704730B40446B1
:1013B00054E8000FA0EB010544E80053002BF7D1DF
:1013C000156030BC704770B404464FF0000054E81C
:1013D000006F0D68AE4207BF44E80023012044E8D7
:1013E00000630E60002B1CBF0020F0E770BC70474C
:1013F00030B4044654E8000F88422CBF451A054615
:1014000044E80053002BF5D1156030BC7047000054
:101410000648804706480047FEE7FEE7FEE7FEE78E
:10142000FEE7FEE7FEE7FEE7FEE7FEE7BD1A000087
:10143000011200002DE9F05F0546002092469B4610
:1014400088460646814640241BE0284641464746DA
:10145000224600F076F853465A46C01A914110D3FE
:1014600011461846224600F016F82D1A67EB0108BF
:101470004F4622460120002100F00DF817EB00092D
:101480004E41201EA4F10104DFDC484631462A46C5
:101490004346BDE8F09F202A04DB203A00FA02F11F
:1014A000002070479140C2F1200320FA03F3194352
:1014B0009040704740EA01039B0703D009E008C948
:1014C000121F08C0042AFAD203E011F8013B00F809
:1014D000013B521EF9D27047D2B201E000F8012B55
:1014E000491EFBD270470022F6E710B513460A46A4
:1014F00004461946FFF7F0FF204610BD421C10F8C5
:10150000011B0029FBD1801A704730B50546002029
:10151000034600E05B1C934205D2EC5CC85C201AD9
:1015200001D1002CF6D130BD70B5064600F0C6FCE6
:10153000046805460A220021304600F012F82C60AB
:1015400070BD202A04DB203A21FA02F00021704706
:1015500021FA02F3D040C2F120029140084319461B
:1015600070472DE9F04791460F4680460446002615
:1015700014F8015B2DB100F03FF80068405DC00732
:10158000F6D12B2D02D02D2D18D0641E4A46394697
:10159000204600F035F827B13968A14201D1C7F8DB
:1015A000008071054FF002040BD54042002803DD96
:1015B00000F084FC0460A007BDE8F08746F4806674
:1015C000E4E70028F8DA00F079FC04606FF00040EE
:1015D000F2E70000064C074D06E0E06840F001032A
:1015E00094E8070098471034AC42F6D3FFF70CFE9E
:1015F000F48B0000148C000000487047F08B000052
:101600002DE9F05F82460078002715468B460AF1E7
:101610000104B946302801D09DB113E014F8010B44
:101620000127782803D0582801D045B10AE00DB130
:10163000102D07D10027102514F8010B02E0082512
:1016400000E00A250026B0460EE005FB080005FB79
:1016500006F1012701EB10461FFA80F8B6F5803F2E
:1016600000D3B94614F8010B294600F018F80028F9
:10167000EBDABBF1000F05D00FB1641E00E0544659
:10168000CBF80040B9F1000F06D000F017FC0221A2
:101690000160C81EBDE8F09F48EA0640FAE73A2814
:1016A00000D2303820F02002412A01D3A2F13700C5
:1016B000884201D34FF0FF30704770B58C1810F896
:1016C000015B15F0070301D110F8013B2A1106D187
:1016D00010F8012B03E010F8016B01F8016B5B1EA1
:1016E000F9D12B0705D40023521E0DD401F8013B7C
:1016F000FAE710F8013BCB1A921C03E013F8015BE8
:1017000001F8015B521EF9D5A142D8D3002070BD6B
:101710002DE9F04F8DB0002700200B900C904FF476
:1017200080700A900126002412E00A9805F0ACFAB5
:1017300040B100BF7E480068304018B10A9805F0FB
:1017400095FA374376000A98001D80B20A90641C0F
:10175000082CEAD34FF4BE7005F096FA50B14FF45E
:10176000BE7005F083FA47F000470BAA0221002063
:1017700005F060FAF8B200B3012600241BE006EA87
:101780000700B0B100BF6B4850F82400C0F305203B
:10179000804600BF674850F82400C0F301408146EE
:1017A000204603F033F8054615B149464046A847A0
:1017B00000BF7600641C082CE1D307F0004000282D
:1017C0007DD04FF0000B002008900990002505E027
:1017D0004FF0FF3006A941F825006D1C022DF7D30C
:1017E00000BF4FF0000B002463E05348005D0590FC
:1017F000059820F0C00004904F480057401C002876
:1018000056D006A9049803F079FF002850D0059817
:101810004FEA9019049803F001F8804602F0F6FFB1
:101820000390039810B9B9F1030F40D1B9F1030F38
:1018300003D108A9049803F06CFF0498029002A851
:1018400005F0B6F90190019800F5E060029950F8B2
:101850002100C0F3014800BF0BA9049803F04EFF1C
:101860008246BAF1000F02D0B8F1020F05D0BAF1EA
:10187000000F1BD1B8F1030F18D1B9F1030F0FD12D
:10188000B8F1020F01D1032000E00220029002997A
:10189000049805F05FF90BF1010000F0FF0B00BFA9
:1018A000039818B14946DDE90320904700BF00BF07
:1018B000641C042C99D3BBF1000F31D000E034E05C
:1018C0004FF0010804AA0221002005F0B3F9002519
:1018D0000BE004A850F825000BA951F82510884208
:1018E00002D04FF0000802E06D1C022DF1D300BFC2
:1018F000B8F1000F02D04FF0000B10E000250CE013
:1019000004A850F825000BA941F8250008A850F8B4
:10191000250006A941F825006D1C022DF0D300BF5B
:10192000BBF1000F7FF45DAF00BF0DB0BDE8F08FDD
:1019300004630040106500400C070020044600BF0F
:101940000A4800680948001D0068002000E0401CAB
:101950001A28FCD300BF0548C830006800F0010019
:1019600000B100BE00BF204600F002F828ED00E004
:1019700000BF00BF00BF00BF00BFBFF34F8F00BF5D
:1019800000BF00BF0948006800F4E0600849084350
:10199000001D0649086000BF00BF00BFBFF34F8FA6
:1019A00000BF00BF00BF00BF00BFFDE70CED00E0BF
:1019B0000000FA0500F01F0201219140024A43098C
:1019C00042F823107047000080E200E000F01F02A0
:1019D000012191404209920002F1E022C2F8001177
:1019E0007047000000F01F0201219140024A4309A4
:1019F00042F823107047000000E200E010B5002814
:101A000007DA4A07140E054A00F00F031B1FD454CF
:101A100003E04A07130E024A135410BD18ED00E00C
:101A200000E400E000BF00BF00BFBFF34F8F00BF66
:101A300000BF00BF0948006800F4E060084908439F
:101A4000001D0649086000BF00BF00BFBFF34F8FF5
:101A500000BF00BF00BF00BF00BFFDE70CED00E00E
:101A60000000FA0510B505F02FFC05F027FB10BDAE
:101A700010B500200949086000210948C0F8441148
:101A8000C0F84811C0F84C1100200549C1F8000108
:101A900002493C39086006F09BFB10BD4011014033
:101AA0000010014010B506F0A5FA10BD014802492A
:101AB000086070470090D0036401002010B503F067
:101AC00051F840B10020524908604FF08041C1F800
:101AD00010015049086003F053F8002855D04E48D3
:101AE00000684E4908604C48001D0068091D0860E8
:101AF000494808300068091D086047480C300068F4
:101B0000091D0860444810300068091D08604248FB
:101B100014300068091D08603F48183000683F49CC
:101B2000203108603C481C300068091D08603A48B4
:101B300020300068091D0860374824300068091DFE
:101B40000860354828300068091D086032482C308C
:101B50000068091D08603048303000682F49403166
:101B600008602D4834300068091D08602A48383064
:101B70000068091D086028483C300068091D08609D
:101B8000254840300068091D086003F007F810B1CF
:101B900023482449086002F0ADFF10B1FB20224920
:101BA000086002F0B5FF38B120480178204800688D
:101BB00061F303001E49086002F0B8FF18B14FF44A
:101BC00000701C49086002F0BFFF40B11A4800686D
:101BD00000F0010018B16FF00100174908601748C4
:101BE000006840F470001549086000BF00BF00BFE6
:101BF000BFF34F8F00BF00BF00BF00BF00BF00BFDB
:101C0000BFF36F8F00BF00BF00BFFFF74FFF10BDD6
:101C10000C010040380500400404001020C50040BD
:101C2000488103008C56004018F50040580200100F
:101C3000E40E0040409602400004004088ED00E0C1
:101C400010B504220249034803F0D6FA10BD000083
:101C5000180700200090004010B50249086880472E
:101C600010BD00005C0000202DE9F04700BF764861
:101C700000680646374600241EE097FAA7F0B0FA3F
:101C800080F528464FF4807101EB800900BF48467B
:101C900005F058F98246BAF1000F02D0484605F027
:101CA0005DF900BFBAF1000F02D00120A840044343
:101CB0000120A840874300BF002FDED104F038FC8C
:101CC00000287CD061480078002878D104F4001006
:101CD0000028F6D040F2A9735D4D2B602B1D1B68C8
:101CE000DAB212B12B1D1B681A4040F2AA73584D8C
:101CF0002B602B1D1B68D9B211B12B1D1B6819401D
:101D000040F2AB73524D2B602B1D1B68D8B210B143
:101D10002B1D1B68184040F2AC734D4D2B602B1DE2
:101D20001B681A40A2B14B4D2D681543DFF824C142
:101D3000CCF8005040F2A975DFF814C1CCF800507F
:101D40000CF104052A602D68EBB200BF00BF00BF94
:101D500040F2AD733E4D2B602B1D1B681940A9B19D
:101D60003C4D2D6845EA0145DFF8E8C0CCF800504D
:101D700040F2AA75DFF8D8C0CCF800500CF1040589
:101D800029602D68EBB200BF00BF00BF40F2AE7308
:101D90002F4D2B602B1D1B681840C8B100F00105AA
:101DA0000DB144F4000400F010050DB144F001043D
:101DB00040F2AB75DFF898C0CCF8005000E020E0AE
:101DC0000CF1040528602D68EBB200BF00BF00BF16
:101DD000204B1B6823F0011313B106F080731C43E2
:101DE0001C4B1B6803F0011353B106F480633BB135
:101DF000184B1B6823F00113164D2B6044F48064CC
:101E000000BF04F4000008B1012000E0002080467B
:101E100024F400040BE094FAA4F0B0FA80F50E4923
:101E200051F8250080470120A840844300BF002CC2
:101E3000F1D106F0EFFAB8F1000F02D00649C86DF3
:101E40008047BDE8F087000004730240380000209E
:101E5000007802403C000020C088000030B50146F8
:101E60000A46C81701EBD0604011800000F1E02065
:101E7000D0F800010B46CC1701EBD4646411A1EB40
:101E800044150124AC40204008B1012030BD0020A1
:101E9000FCE700000FB41CB50A46521ECDE9000253
:101EA00007A9054B6A46069800F01CF8009A002125
:101EB00011701CBC5DF814FB4723000000487047FC
:101EC0006801002002E008C8121F08C1002AFAD1E8
:101ED00070477047002001E001C1121F002AFBD1AA
:101EE000704700002DE9FF4F8DB00F4605460026D4
:101EF00006E025280BD0DDE90F1290476D1C761CFB
:101F000028780028F5D111B03046BDE8F08F0024C4
:101F1000A246A1460122EC4900E0044315F8013F26
:101F2000203B02FA03F00842F7D128782A2810D083
:101F30006FF02F022878A0F13001092914D80AEB9C
:101F40008A0102EB410144F0020400EB010A6D1C1E
:101F5000F0E701CF5FEA000A03D544F40054CAF168
:101F6000000A44F002046D1C28782E2817D115F8B9
:101F7000010F44F004042A280ED06FF02F022878B5
:101F8000A0F1300109290AD809EB890102EB4101CE
:101F900000EB01096D1CF2E757F8049B6D1C2878D3
:101FA0006C280FD006DC4C2817D068280DD06A2882
:101FB00014D104E0742810D07A280FD10DE044F435
:101FC00000140AE044F4801401E044F440146978F9
:101FD000814202D104F580146D1C6D1C2A786E2A92
:101FE0001FD00CDC632A31D004DC002A8BD0582AA5
:101FF00011D1A3E0642A68D0692A0CD165E0732A64
:102000002ED004DC6F2A73D0702A04D19BE0752A8D
:102010006FD0782A6ED01046DDE90F129047761CFB
:1020200050E1C4F30250022806D0032809D0042846
:1020300001CF09D0066045E101CFF117C0E9006189
:1020400040E101CF06803DE106703BE117F8040B4B
:102050008DF8000000208DF80100EB46012003E020
:1020600057F804BB4FF0FF3061074FF0000102D476
:102070000DE008F10101884649450FDA8045F8DB9B
:102080001BF808100029F4D108E008F10101884686
:102090008142FADB1BF808100029F6D1DDE90F2395
:1020A000AAEB08008146214600F036F9304400EBE7
:1020B000080604E0DDE90F121BF8010B9047B8F1A8
:1020C0000108F7D221464846F7E00A21C4F302533B
:1020D0004FF0000B0891022B04D001CFC117032B46
:1020E00009D00AE0FF1D27F00707F7E8020108E022
:1020F00032E01FE020E000B2C117042B01D140B252
:10210000C117031E71F1000307DA4FF0000CD0EB8A
:102110000C006CEB01012D2302E0230504D52B23D9
:102120008DF82430012303E0E30701D02023F7E7F3
:10213000984658E00A2110E010210EE010204FF0E0
:10214000000B08900CE010214FF0000B44F0040449
:102150004FF00809089103E008214FF0000B0891A7
:10216000C4F30253022B04D001CF0021032B06D06D
:1021700006E0FF1D27F00707F7E8020103E080B241
:10218000042B00D1C0B24FF0000823072BD5702AD2
:1021900007D0DDF820C08CF0100C5CEA0B0C05D0E9
:1021A0000EE040238DF82430012308E050EA0103BB
:1021B00006D030238DF824308DF825200223984650
:1021C000DDF820C08CF0080C5CEA0B0C0BD150EA57
:1021D000010301D1630706D530238DF824304FF079
:1021E0000108A9F10109582A04D038A20B9208AAC3
:1021F0000A920BE03AA2F9E75B46089AFFF71AF950
:102200000B9B9B5C0A9A521E0A92137050EA0102C1
:10221000F2D10A98ADEB000000F1200B600702D567
:1022200024F4803401E04FF00109D94502DDA9EB27
:102230000B0000E0002000EB0B0141440890AAEBEA
:10224000010AE00306D4DDE90F232146504600F0E1
:1022500063F806444FF0000908E009A911F80900E5
:10226000DDE90F12904709F10109761CC145F4DB45
:10227000E0030CD5DDE90F232146504600F04CF871
:10228000064404E0DDE90F1230209047761C0899DF
:10229000481E08900029F5DC08E00A980A990078A1
:1022A000491C0A91DDE90F129047761CBBF1000131
:1022B000ABF1010BF1DC21465046DDE90F2300F0C4
:1022C00019F806446D1C1BE6092801003031323331
:1022D0003435363738396162636465660000000062
:1022E000303132333435363738394142434445464C
:1022F000000000002DE9F041044600251E46174667
:10230000880404D405E039462020B0476D1C641EC3
:10231000F9D52846BDE8F0812DE9F04104460025B5
:102320001E469046C80301D5302700E020278804C8
:1023300004D505E041463846B0476D1C641EF9D50A
:102340002846BDE8F0814A68002A06D00A68531C76
:102350000B6010704868401E4860704770B50546B5
:102360000E46144672B66FF48040284418B1012816
:1023700003D1204602E0204600E000BF00BF00BFBE
:102380000648006800F0010000B100BE00BF224610
:102390003146284600F004F870BD0000F0ED00E082
:1023A00018B5012300939DF800301E4B186059604A
:1023B0009A606FF48043034463B1012B19D1194B28
:1023C000DA60DB681B88174CA3612346DB685B6817
:1023D000E3610EE0134B1A611B699B68114C63614A
:1023E00023461B691B68A36123461B695B68E36185
:1023F00000BF00BF0B4B1B680A4B5B68094B9B6817
:10240000084BDB68074B1B69064B5B69054B9B69F7
:10241000044BDB6972B600BF9DF80030002BFBD186
:1024200062B618BD240700200146C86888600020F5
:102430007047034609B90E20704712B1501E104074
:1024400008B10920F8E71960501E988000209860B4
:10245000D86000BFF0E72DE9F04780460E461446ED
:1024600000BFB8F1000F02D10E20BDE8F08700BF19
:1024700000BF0CB90E20F8E700BF404602F0C2FDD5
:102480000546D4F800900027A94501D2484600E04F
:102490002846824625600DB90520E6E70EB90020E2
:1024A000E3E705E038467F1C8119404602F09EFDB7
:1024B0005745F7D3C4F800A00020D6E72DE9F04730
:1024C00006460F46144600BF16B90E20BDE8F08739
:1024D00000BF00BF0CB90E20F8E700BF304602F085
:1024E00091FDB188081A451CD4F800904FF00008FF
:1024F000A94501D2484600E02846824625600DB92C
:102500000420E3E70FB90020E0E706E0404608F1C9
:102510000108395C304602F083FDD045F6D3C4F89B
:1025200000A00020D2E7000010B503460C4600BF13
:102530000B48807808B9082010BD00BF0AB90720F1
:10254000FAE70BB90720F7E71868007C08B1082004
:10255000F2E71968002008744C744A6100BFEBE789
:102560004407002010B505F06FF800200F490870EF
:1025700048700B20887000200D4908600D490870D4
:102580000D4908701420FFF715FA07211420FFF7F2
:1025900035FA1420FFF71AFA002005F02BF805F0A1
:1025A00023F806490860002010BD00004407002001
:1025B00064000020740000207500002068000020E6
:1025C0002DE9F04104460E461746254600BF104847
:1025D000807810B90820BDE8F08100BF0CB9082050
:1025E000F9E7052E01D20720F5E7686908B9082048
:1025F000F1E7687C012801D1304600E000208046E8
:102600003B4642463146284605F09AFDE3E7000086
:102610004407002070B50446254600BF084880786E
:1026200008B9082070BD00BF0CB1686908B908205E
:10263000F8E7002028740221284605F0ADFDF1E7F7
:102640004407002070B5044600F09EF9054607E0F7
:102650002146284602F0E8F8284600F0D2F905465F
:10266000002DF5D170BD70B500F08EF9054612E071
:10267000284600F08FF90646002405E0214628464A
:1026800000F0FDFD601CC4B2B442F7DB284600F048
:10269000B8F9054600BF002DEAD170BD2DE9F04123
:1026A00000F072F9054614E0284600F073F906467A
:1026B000002407E000222146284600F033FE0746AA
:1026C000601CC4B2B442F5DB284600F09AF9054616
:1026D00000BF002DE8D1BDE8F08170B504460626A4
:1026E00000F052F905460BE02146284602F09CF81E
:1026F0000646062E00D005E0284600F082F9054681
:10270000002DF1D100BF304670BD00002DE9FC471F
:1027100080460F461546404601F045F80446207DA8
:1027200000F0010010B90820BDE8FC87A06900286E
:1027300039D1E06EA8420DD32A463846A16EFEF785
:10274000B9FEE06E401BE066A06E2844A066656797
:1027500000262FE0A761E56100BF00BFC2465046DA
:1027600002F000F98146144903C9CDE90001019442
:10277000E06E80B1D4E91A12A069FEF79BFEE16E0B
:10278000E069411AE161E16EA0690844A061E06E70
:1027900020670020E0666946484600F01DFB0646BB
:1027A00006B9922606E0206A18B927626562922669
:1027B00000E011263046B7E75C8A00002DE9FE4FA5
:1027C00004460D46164600BF00BF2746204600F0CF
:1027D000EAFF804698F8140000F00109B9F1000FF3
:1027E00002D10820BDE8FE8F384602F0ABF88246E1
:1027F0000020009001900290009501966946504695
:1028000000F018FBEEE700002DE9F84F0546002721
:1028100015E04FF0000808E000BF3078814600F076
:10282000F1FA10B11120BDE8F88F41464A1C02F0C0
:10283000FF08504600F0B1F8061EEDD100BF394642
:102840007A1CD7B2284600F0BCF8B0F1000AE0D1FB
:10285000002712E04FF0000805E000BF3078814605
:10286000294600F0D6FA41464A1C02F0FF085046BD
:1028700000F093F8061EF0D100BF39467A1CD7B29B
:10288000284600F09EF8B0F1000AE3D1084C03E0BE
:10289000206800F011F8044620680028F8D125606F
:1028A0000448006800906946284601F0BDFFBAE779
:1028B00080000020308A00000146086870472DE93A
:1028C000F04F87B004460E4691461D46DDF840B0F5
:1028D00000200590824601E00AF1010A60680123A8
:1028E00000222146D0F804C005A8E0470028F3D113
:1028F00004900027804602903FE06068012304AA0C
:102900002146D0F804C002A8E0476068012301AA6C
:102910002146D0F804C002A8E0479DF80400B04268
:102920001DD1C84517D19DF81000CBF800009DF8C7
:10293000100005F8010B05F8016B9DF81000831ECF
:1029400060682A462146D0F804C002A8E04700206B
:1029500007B0BDE8F08F08F1010000F0FF089DF816
:102960001000831E606800222146D0F804C002A82F
:10297000E0479DF81000074400BF5745BDD3052030
:10298000E6E7014608787047014800687047000094
:10299000800000200146087A70470246507888423D
:1029A00001DC00207047907883185818FAE7024637
:1029B0005078884201DC00207047907883185818BE
:1029C000FAE770B505460C462846FFF7E3FFA0423C
:1029D00001DC002070BD05F1090604EB4400304421
:1029E000F8E7024600BF107A884201DC00207047F9
:1029F00002F1090301EB41001844F8E701460878A9
:102A0000704710B504462046FFF756FF006810BD1A
:102A1000014600BF0868006870470000034800785E
:102A200008B1012070470020FCE700008900002069
:102A30000148006870470000840000202DE9F04143
:102A400080460C46062520780F2879D2DFE800F072
:102A500092080C0E922C4C9292929231333847008D
:102A6000032005F011FC86E0002584E0444802F0D4
:102A700007FEB8B15C2000BF4249014401220A6050
:102A800000BF00BF00BF00BFBFF36F8F00BF00BF1C
:102A900000BF00BF00BF00BFBFF34F8F00BF00BF2C
:102AA00000BF00BF002566E0404600F08FF80546F5
:102AB00061E000255FE0002005F0E6FB00255AE01C
:102AC00000BF3148006800F0010018B1022005F095
:102AD000DBFB02E0012005F0D7FB00254BE00120E5
:102AE00005F0D2FB002546E0E078032800D142E063
:102AF000E678264807684FB100BF002023490860E8
:102B000000BF084641683046B84700E00E20054641
:102B10006DBB05F0AFFB20B1A07838BB03F04DFED4
:102B200027E000BF00BF00BF19480078082808D17F
:102B30001748001D007800F00F0010B9012001E0D7
:102B400018E0002068B112480830007800F0F0006A
:102B500038B90F480C30007800F0F00008B90120B7
:102B600000E0002000BF08B903F022FE01E003F0FE
:102B700073FE00E000BF00BF2846BDE8F081000002
:102B8000B00000200070024038040040B400002073
:102B9000E00F00F010B50446024908684A68214673
:102BA000904710BDB009002070B504460D4603F0F3
:102BB000F9FDA04201D0102070BD0348D5E90012F4
:102BC00006C00020F8E70000B40000202DE9FF4116
:102BD0000646062405208DF804000DF1050003F0DB
:102BE00005FE05F047FB00BF00203149086000BF2B
:102BF0009DF8050000F01F0131B1012910D0022914
:102C000029D003293ED138E001A9304604F0D2FE94
:102C10000446062C03D101A8FFF75FFD044632E00D
:102C20009DF809706946384600F052FB05460DB91B
:102C300010240FE001AA9DF80010284600F016FBB2
:102C40000446062C06D101AA9DF80010284604F07F
:102C5000DDFF044617E006249DF8095005F00F003B
:102C600020B101A9284600F06BF80446062C03D1D8
:102C700001A804F015FF044605E001A8FFF72DFDAB
:102C8000044600E000BF00BF5CB905F0F3FA28B1CC
:102C900003F088FD38B903F090FD04E003F088FDEF
:102CA00001E003F0D9FD204604B0BDE8F08100004A
:102CB000B40000202DE9FE4F06460F461446B6F834
:102CC0000680A04501D2404600E0204681464445AA
:102CD00009D2802003F0F6FAB4FBF0F100FB1140BA
:102CE00008B9012000E0002082460097CDF804904A
:102CF000CDF808A0002000F00DFD6946802000F00E
:102D000099F8054625B905498020FFF74DFF05468E
:102D1000002000F004FD2846BDE8FE8FB88A0000C0
:102D2000014609B14020086000487047040A0020AD
:102D300010B503F0B3F810BD10B503F0DBF810BD0B
:102D400070B504460E4604F08000802803D104F0DC
:102D50000F00092806DB04F0800070B904F00F00B2
:102D600009280ADA204600F00BF8056825B131463B
:102D7000284601F059FD70BD00BF1020FBE70000A0
:102D8000014601F08000802805D101F00F020548BE
:102D900000EBC200704701F00F02034800EBC200D5
:102DA000F8E7000068090020B009002010B50446CB
:102DB000204603F07BF910BD10B5044604F00F0067
:102DC000082805DA204603F0ABF9204603F0CCFAD8
:102DD000204603F0CBF910BD70B504460D462046E1
:102DE00003F020FA08B9082070BD054800780228D1
:102DF00001D00820F8E72946204603F01DFAF3E742
:102E00008800002010B504462046FFF7B9FF00688F
:102E100010BD70B506460C463046FFF7B1FF0546BB
:102E20002C6014B90020686002E060680068686087
:102E300070BD000070B504460D46204603F0F2F95F
:102E400008B9082070BD05480078022801D0082084
:102E5000F8E72946204603F0C7FAF3E78800002088
:102E6000F8B505462878B0B9002000F053FC1E489C
:102E7000006810B968881D49088001211A4802F0CD
:102E800006FC002000F04BFC0121284605F09CFCCC
:102E900015480068F8BD69461548006802F0B8FB9F
:102EA0000446F4B128682060002000F033FC0F488D
:102EB00000880D490968401A401CE08000210A483A
:102EC00002F006FCA080002000F029FC69460848BA
:102ED000006802F0C7FB06463146284605F074FC40
:102EE00000BF00BFD6E70000780000207C00002073
:102EF000F88900002DE9F04104462078092874D0B3
:102F000007DC73D2DFE800F0879DD8ACB9ECF27231
:102F1000F00081280ED006DC0A2868D00F2867D080
:102F2000802863D13CE0822820D0832851D0842897
:102F3000F7D15EE08548FFF72DFE8448FFF782FB5E
:102F40000D2005F05DFC8249096819B98149097AAB
:102F500001B901E0012100E00021084603F082FCF4
:102F6000FFF781FB012005F009F8EBE0FFF77BFBA1
:102F700003F0DAFC002005F001F87748FFF762FB68
:102F80007548FFF707FE0E2005F03AFC00BF7348B6
:102F90000078054600F082FB08B102F0A1FED1E006
:102FA00000BF6E480078052804D0062806D0072800
:102FB0000CD107E0022004F0E1FF08E0082004F053
:102FC000DDFF04E0022004F0D9FF00E000BF00BFF5
:102FD000B8E000BF61480078032805D103F0D6FCB3
:102FE00010B1042004F0CAFFACE09CE0A9E0A1E02D
:102FF0006FE000BF59480078032805D103F0C6FCF4
:1030000010B1042004F0BAFF03F070FD10B10620E7
:1030100004F0B4FF96E0002005F0F2FBFFF708FD96
:1030200005460BE02146284601F0FEFB07462E46EA
:103030003046FFF741FC4068054600BF002DF1D146
:1030400080E0FFF710FB022004F098FF012005F05C
:10305000D7FB2046FFF79EFD2046FFF7F3FA71E00D
:10306000052004F08BFF032005F0CAFB2046FFF784
:1030700091FD2046FFF7E6FA64E0032005F0C0FB6F
:103080003748FFF787FD3648FFF7DCFA00BF3348C3
:103090000078062802D0082808D103E0072004F0B1
:1030A0006DFF07E0022004F069FF03E0022004F056
:1030B00065FF00BF00BF45E0032004F05FFF022072
:1030C00005F09EFB2046FFF7BDFA2046FFF762FDA4
:1030D00038E00F2005F094FB2046FFF7B3FA31E00B
:1030E0002046FFF757FD2DE016E0FFE7A078FFF739
:1030F00047FE05462146D5E90002904758B1A07821
:1031000000F00F0038B1A07800F00F00082802DAB4
:10311000A07803F0E9F815E0082005F071FB2046DF
:10312000FFF790FA0EE0092005F06AFB2046FFF752
:1031300089FA07E00A2005F063FB2046FFF782FAD0
:1031400000E000BF00BFBDE8F08100002D8A000054
:1031500084000020F80900202E8A0000880000204A
:103160002F8A000010B504462046FFF779FE10BDF7
:1031700008B5002000903448006830B9334934481D
:10318000006802F061FA304908602F480068A0B377
:103190002D4800688088002821DD2B480068C08801
:1031A000B0F5006F03D3002027490968C88026487E
:1031B0000068C088ADF8020023480068C088401C41
:1031C00021490968C880204800688088401E1E493F
:1031D000096888806846FFF78DFE012008BD1A48FF
:1031E0000068FFF787FE19491948006802F01EFAC7
:1031F0000020154908600120F0E7FFE71548006846
:10320000F8B1002000F086FA13480088B0F5006F8E
:1032100002D30020104908800F480088ADF8020052
:103220000D480088401C0C4908800121094802F023
:103230005AFA002000F073FA6846FFF75BFE01209F
:10324000CCE70020CAE7000098000020940000208E
:10325000F8890000780000207C00002010B50446AA
:103260000148FFF7FDFD10BD148A000070B505464A
:103270000E4614462146284601F0D6FA70BD2DE9C7
:10328000F05F04460E466068C06820B16068314651
:10329000C268204690472746B04641463846FFF769
:1032A00090FB814600BF99F80100824600250AE0A4
:1032B00029464846FFF771FB83469BF80000FFF75D
:1032C00075FD681CC5B25545F2DB00BFBDE8F09F37
:1032D0002DE9F04706460D46FFF756FB07461DE071
:1032E0003846FFF757FB8046002410E02146384659
:1032F000FFF767FB814600BF99F80000B04204D198
:1033000005B12C703846BDE8F087601CC4B2444556
:10331000ECDB3846FFF775FB074600BF002FDFD117
:103320000020F0E72DE9FE4F0446894615464FF090
:10333000060A6068806830B160682A46494683683A
:10334000204698478246BAF1060F22D1A346CDE91E
:103350000195029D0DB107201AE058460199FFF72B
:1033600030FB064600BF777800BF4FF000080CE046
:1033700041463046FFF711FB009000990878FFF7AF
:103380001BFD08F1010000F0FF08B845F0DB00204C
:1033900082465046BDE8FE8F70B504460D460026B5
:1033A0006068006928B16068294602692046904734
:1033B0000646304670BD00002DE9F84F054608234B
:1033C0004FF4847237493848006802F00DF904461A
:1033D00014B10320BDE8F88F344803F081F90446A6
:1033E0000CB12046F6E700203149087031490860E9
:1033F0003149086048213148FEF775F848213048C6
:10340000FEF771F845B92F492F4BD3E900209B688F
:10341000C1E901030A6003E02A4895E80E000EC0E6
:10342000002002F0F3FC04464CB1852C07D000BF0D
:1034300026A24FF44B712046FDF7ECFE00BF00BF03
:10344000304E00BF4FF0000812E04FF0000905E0D9
:1034500000BF387882463146FFF7DBFC49464A1CFC
:1034600002F0FF095846FFF798FA071EF0D100BF97
:1034700041464A1C02F0FF083046FFF7A2FAB0F1BD
:10348000000BE2D12048006800906946304601F008
:10349000CBF904461CB103F017FB20469AE7002045
:1034A00098E7000050080020F8890000653100000E
:1034B000880000208000002084000020680900208F
:1034C000B0090020F8090020FC8900002E2E5C2E97
:1034D0002E5C2E2E5C2E2E5C73646B5C636F6D70A5
:1034E0006F6E656E74735C6C69627261726965732C
:1034F0005C757362645C6170705F757362642E6387
:1035000000000000A88A0000188A000010B50446D8
:1035100024B1012C06D0022C0CD107E00748FFF79C
:103520009FFC08E00648FFF79BFC04E00548FFF716
:1035300097FC00E000BF00BF10BD0000088A00003B
:103540000C8A0000108A000070B503F021F910B158
:1035500003F014F908B1082070BD094802F068FCB6
:10356000044600BF25463DB100BF06A240F28631A9
:103570002846FDF74FFE00BF00BF0020ECE700002B
:103580001C8A00002E2E5C2E2E5C2E2E5C2E2E5CB5
:1035900073646B5C636F6D706F6E656E74735C6C7F
:1035A00069627261726965735C757362645C617093
:1035B000705F757362642E630000000030B585B0E3
:1035C0000A48006880B240F440444FF08050D0F880
:1035D000A450234606A20D2101A80095FEF75AFC2F
:1035E00001A804F0B5FC05B030BD0000A800001033
:1035F0002530345825303858000000000146C1F30A
:10360000411070470146C1F3411070470146C1F3B4
:103610004110704710B507E000BF00BF09480068BF
:1036200000F0010000B910BD00BF00BF05480068F0
:10363000C0F340000028EFD00348FFF711FC00BFA3
:10364000F1E7000038040040208A000008B5034874
:10365000006800906846FFF703FC08BD248A00005C
:1036600030B502460D4612B90A48006830BD002345
:10367000052A01D30020F9E70748815C09B9002039
:10368000F4E7044800EB810050F8234000BF2046D7
:10369000ECE700001C0100202C8B000001460929EA
:1036A00018D2DFE801F00507090B0D0F1113150003
:1036B000002070470020FCE70120FAE70020F8E72F
:1036C0000020F6E70120F4E70120F2E70120F0E70F
:1036D0000120EEE70020ECE70146092918D2DFE8D7
:1036E00001F00507090B0D0F11131500002070479D
:1036F0000020FCE70120FAE70020F8E70020F6E7C9
:103700000020F4E70020F2E70020F0E70120EEE7D8
:103710000020ECE700B5024600F006F800BD00B559
:10372000024600F00BF800BD72B603480068401C6A
:10373000014908607047000030010020044800681B
:10374000401E034908600846006800B962B6704729
:10375000300100200146102903DBA1F11000C0B2A6
:10376000704741F08000FBE770B504460D462946DE
:103770006360C869984210D38869206088691844DA
:103780008861086F18440867C869C61ACE61C8699D
:1037900008B1012070BD0020FCE701F12800206085
:1037A0008B670020F6E7014608680830704770B55F
:1037B00005460C46284601F06DF8A178884201D1F3
:1037C000002070BDA07800F0800080280ED1E07845
:1037D00010B1032808D105E00121284605F002F8C0
:1037E0000020EEE70020ECE70320EAE7A07800F0F5
:1037F0008000A8B9E07820B101280CD003280DD1B1
:103800000AE0284600F01CFF06460021284604F086
:10381000E9FF3046D5E700BF0020D2E70320D0E71C
:103820000620CEE770B505460C46002620780F2806
:1038300024D2DFE800F00809191A230D1323231FEF
:10384000231B1C1D1E001BE0284600F0E3FE17E0B2
:103850002146284604F07EF9064611E02146284616
:10386000FFF7A5FF06460BE00AE009E008E007E0E5
:1038700006E005E0284600F0CDFE01E0062600BF88
:1038800000BF304670BD00002DE9FF4106460D46E1
:103890001746984600BF287AFC49087000BF00BF51
:1038A0002C46009700200190CDF8088003960398DD
:1038B000006840F24532811A904275D050DC40F2E7
:1038C0002732A0EB020190426FD025DC40F2173284
:1038D000A0EB0201904269D011DCB0F5457F73D0B6
:1038E00006DC80B3A0F2123070B301286DD1A7E0DE
:1038F000A0F21530002869D00128F7D1FBE0092992
:103900007BD004DC012979D00229EFD144E10A29D6
:1039100075D00F29EAD19EE10E2971D00EDC07295E
:103920006FD006DC01296DD005296CD00629DDD1C8
:103930000CE20C2968D00D29D8D15FE2A1F1150065
:10394000092842D201E047E05FE0DFE810F08D0295
:103950003E003E003E003E00AF02CA02E502000308
:1039600013297DD015DCA1F103001028E9D2DFE88E
:1039700010F0250340035B03760393032C002C0017
:10398000AE03C903E403FF032C002C0020043B0416
:103990005604372971D00FDC29296FD007DC142990
:1039A0006DD02829A2D1FDE3EDE275E1BEE02D291D
:1039B0007ED032299AD1F6E344297AD007DC3E2919
:1039C00078D03F2992D1EFE35AE0EEE378E049293D
:1039D00071D054298AD1E9E300BF08200399087106
:1039E000DDE90101884211D300BF40F21230039992
:1039F0000860012004B0BDE8F081ECE0B1E005E131
:103A000017E2BEE165E186E1DDE100BF009820B18B
:103A100003980079DDE9001288540198401C019058
:103A200000BF00BF0B2003990871DDE90101884246
:103A300007D300BF40F21330039908600120D9E793
:103A400000BF009820B103980079DDE90012885486
:103A50000198401C019000BF00BF207D039900E049
:103A6000F8E30871DDE9010188420AD300BF4FF491
:103A70004570039908600120BCE7ECE3ECE3ECE35C
:103A800000BF009820B103980079DDE90012885446
:103A90000198401C019000BF00BF022003990871EB
:103AA000DDE9010188420CD300BF40F2153003E08C
:103AB000EFE3EFE3EFE3EFE303990860012099E719
:103AC00000BF009820B103980079DDE90012885406
:103AD0000198401C019000BF00BF022003990871AB
:103AE000DDE90101884207D300BF40F21630039997
:103AF000086001207EE700BF009820B1039800799C
:103B0000DDE9001288540198401C019000BF00BFFD
:103B1000022003990871DDE90101884207D300BF43
:103B200040F2173003990860012063E700BF009856
:103B300020B103980079DDE9001288540198401CF7
:103B4000019000BF00BF607E03990871DDE90101AB
:103B5000884207D300BF4FF44670039908600120E4
:103B600048E700BF009820B103980079DDE9001212
:103B700088540198401C019000BF00BF00200399A9
:103B80000871DDE90101884207D300BF40F2193016
:103B90000399086001202DE700BF009820B1039829
:103BA0000079DDE9001288540198401C019000BFA3
:103BB000002037490870FBE300BF09200399087112
:103BC000DDE90101884207D300BF4FF44870039933
:103BD000086001200EE700BF009820B1039800792B
:103BE000DDE9001288540198401C019000BF00BF1D
:103BF000042003990871DDE90101884207D300BF61
:103C000040F22130039908600120F3E600BF0098DC
:103C100020B103980079DDE9001288540198401C16
:103C2000019000BF1A4801782846FEF7DAFE1949CC
:103C3000086000BF08460068FEF7E0FE03990871BF
:103C4000DDE90101884207D300BF40F22630039925
:103C500008600120CEE600BF009820B103980079EB
:103C6000DDE9001288540198401C019000BF00BF9C
:103C7000002003990871DDE9010188420DD300BFDE
:103C800040F22730039908600120B3E69C00002031
:103C90009D000020A000002000BF009820B10398E4
:103CA0000079DDE9001288540198401C019000BFA2
:103CB00000BFF8490868417803980171DDE9010106
:103CC000884207D300BF4FF44A700399086001206F
:103CD00090E600BF009820B103980079DDE900125A
:103CE00088540198401C019000BFEA480068FEF724
:103CF00085FE217D884250D100BF022003990871C2
:103D0000DDE90101884207D300BF4FF44B700399EE
:103D1000086001206EE600BF009820B1039800798A
:103D2000DDE9001288540198401C019000BF00BFDB
:103D3000022003990871DDE90101884207D300BF21
:103D400040F22D3003990860012053E600BF00982F
:103D500020B103980079DDE9001288540198401CD5
:103D6000019000BF00BF607E03990871DDE9010189
:103D7000884207D300BF40F22E300399086001202B
:103D800038E600BF009820B103980079DDE9001201
:103D900088540198401C019057E0BE480068FEF727
:103DA0002DFEA17D884250D100BF0A2003990871E1
:103DB000DDE90101884207D300BF40F233300399A7
:103DC0000860012016E600BF009820B10398007932
:103DD000DDE9001288540198401C019000BF00BF2B
:103DE000002003990871DDE90101884207D300BF73
:103DF0004FF44D70039908600120FBE500BF009867
:103E000020B103980079DDE9001288540198401C24
:103E1000019000BF00BF002003990871DDE9010196
:103E2000884207D300BF40F2353003990860012073
:103E3000E0E500BF009820B103980079DDE90012A9
:103E400088540198401C019000BF00BF00200399D6
:103E50000871DDE90101884207D300BF4FF44F70BC
:103E6000039908600120C5E500BF009820B10398C0
:103E70000079DDE9001288540198401C019000BFD0
:103E800084480068FEF7BAFD217D88427AD100BFE0
:103E9000052003990871DDE90101884207D300BFBD
:103EA00040F24130039908600120A3E500BF00986B
:103EB00020B103980079DDE9001288540198401C74
:103EC000019000BF00BF242003990871DDE90101C2
:103ED000884207D300BF40F24230039908600120B6
:103EE00088E500BF009820B103980079DDE9001251
:103EF00088540198401C019000BF00BF0020039926
:103F00000871DDE90101884207D300BF40F2433068
:103F10000399086001206DE500BF009820B1039867
:103F20000079DDE9001288540198401C019000BF1F
:103F300000BF102003990871DDE90101884207D311
:103F400000BF4FF4517003990860012052E500BF93
:103F5000009820B103980079DDE900128854019897
:103F6000401C019000BF00BF012003990871DDE9EA
:103F70000101884208D300BF40F245300399086030
:103F8000012037E595E100BF009820B10398007942
:103F9000DDE9001288540198401C019000BF00BF69
:103FA000052003990871DDE90101884207D300BFAC
:103FB0004FF452700399086001201BE500BF009880
:103FC00020B103980079DDE9001288540198401C63
:103FD000019000BF00BF242003990871DDE90101B1
:103FE000884207D300BF40F249300399086001209E
:103FF00000E500BF009820B103980079DDE90012C8
:1040000088540198401C019000BF00BF0120039913
:104010000871DDE90101884207D300BF40F24A3050
:10402000039908600120E5E400BF009820B10398DF
:104030000079DDE9001288540198401C019000BF0E
:1040400000BF032003990871DDE90101884207D30D
:1040500000BF40F24B30039908600120CAE400BF62
:10406000009820B103980079DDE900128854019886
:10407000401C019000BF00BFA07D03990871DDE9DD
:104080000101884209D300BF4FF4537003990860BF
:104090000120AFE4A000002000BF009820B10398E9
:1040A0000079DDE9001288540198401C019000BF9E
:1040B00000BF042003990871DDE90101884207D39C
:1040C00000BF40F24F3003990860012092E400BF26
:1040D000009820B103980079DDE900128854019816
:1040E000401C019000BF00BF242003990871DDE946
:1040F0000101884207D300BF4FF454700399086050
:10410000012077E400BF009820B103980079DDE931
:10411000001288540198401C019000BF00BF02208B
:1041200003990871DDE90101884207D300BF40F21D
:1041300051300399086001205CE400BF009820B171
:1041400003980079DDE9001288540198401C019021
:1041500000BF00BF022003990871DDE90101884218
:1041600007D300BF40F2523003990860012041E4B8
:1041700000BF009820B103980079DDE9001288544F
:104180000198401C019000BF00BF052003990871F1
:10419000DDE9010188420DD300BF40F2553003999B
:1041A000086004E0A1E004E15BE1CBE1C8E10120AB
:1041B00020E400BF009820B103980079DDE90012E7
:1041C00088540198401C019000BF00BF242003992F
:1041D0000871DDE90101884207D300BF40F2563083
:1041E00003990860012005E400BF009820B10398FE
:1041F0000079DDE9001288540198401C019000BF4D
:1042000000BF062003990871DDE90101884207D348
:1042100000BF40F257300399086001200FE400BF4F
:10422000009820B103980079DDE9001288540198C4
:10423000401C019000BF00BF207D03990871DDE99B
:10424000010188420BD300BF4FF4567003990860F8
:10425000012011E402E0CEE062E01EE000BF009821
:1042600020B103980079DDE9001288540198401CC0
:10427000019000BF00BFA07D03990871DDE9010135
:1042800088420BD300BF40F25930039908600120E7
:1042900015E46BE007E1C9E027E100BF009820B119
:1042A00003980079DDE9001288540198401C0190C0
:1042B00003E0A7480068FEF7A1FBA549086841781C
:1042C000A44801700020A44908701FE100BF072026
:1042D00003990871DDE90101884207D300BF40F26C
:1042E0006D3003990860012004E400BF009820B1FC
:1042F00003980079DDE9001288540198401C019070
:1043000000BF00BF052003990871DDE90101884263
:1043100007D300BF40F26E3003990860012004E427
:1043200000BF009820B103980079DDE9001288549D
:104330000198401C019000BF8748017884480068BC
:10434000FEF735FB8549086000BF08460068FEF7A8
:1043500018FB03990871DDE90101884207D300BF0A
:1043600040F2723003990860012014E400BF009805
:1043700020B103980079DDE9001288540198401CAF
:10438000019000BF72480068FEF738FB217D88422B
:104390001BD100BF032003990871DDE901018842A8
:1043A00008D300BF40F2773003990860012011E480
:1043B000B8E000BF009820B103980079DDE9001251
:1043C00088540198401C019021E061480068FEF784
:1043D00015FBA17D88421AD100BF02200399087104
:1043E000DDE90101884207D300BF4FF45F700399F4
:1043F0000860012009E400BF009820B1039800790B
:10440000DDE9001288540198401C019000BF00BFF4
:10441000402003990871DDE90101884207D300BFFC
:1044200040F2833003990860012013E400BF009834
:1044300020B103980079DDE9001288540198401CEE
:10444000019000BF00BF002003990871DDE9010160
:10445000884207D300BF4FF46170039908600120C0
:1044600013E400BF009820B103980079DDE9001241
:1044700088540198401C019000BF35480068FEF741
:10448000BDFA217D88421AD100BF1020039908711E
:10449000DDE90101884207D300BF40F2893003996A
:1044A0000860012014E400BF009820B1039800794F
:1044B000DDE9001288540198401C019021E0244855
:1044C0000068FEF79BFAA17D88421AD100BF002048
:1044D00003990871DDE90101884207D300BF40F26A
:1044E0008E3003990860012014E400BF009820B1C9
:1044F00003980079DDE9001288540198401C01906E
:1045000000BF15480078401C134908701248007815
:10451000104909788842FFF6D9AE11480078401C4E
:104520000F4908700E4800780E4909788842FFF656
:1045300043AB00BF40F2993003990860012004E4C6
:1045400000BF00BF00BF00200399086000BF17E450
:10455000A0000020A4000020A5000020A80000204A
:104560009D0000209C0000202DE9F04105460E46EC
:1045700015B10320BDE8F08137463846FFF713F93F
:1045800004462078202807D1D4F80200E060E088B3
:104590002082207AA07401E00620EBE700BF002013
:1045A000E8E700002DE9F04186B004460E4600BF62
:1045B00000BF27463846FFF7F6F80546B078287062
:1045C000F07968700020039004900590A81C039077
:1045D000687804900020FFF79DF803A90020FEF7FB
:1045E00029FC8046B8F1000F0AD1094903C9CDE979
:1045F0000101029701A90020FEF7D6FA804600BF0C
:104600000020FFF78CF8404606B0BDE8F0810000BE
:104610004C8A000070B5054600BF00BF2E463046EC
:10462000FFF7C1F804460020A082A06100212162AA
:10463000E06620676067A06704F12800A06670BD8F
:104640002DE9FC47074600BF00BFB8464046FFF7CC
:10465000AAF80446384600F085F981463F4903C967
:10466000CDE900010194E069A8B9206F60670020DE
:104670002067E066206A58B1D4E90801C4E9060160
:104680000021216269464846FEF7A6FBBDE8FC878B
:104690000020A061FAE7A66F3546E069B04200D27B
:1046A000E5692A4604F12801A069FCF703FF206FA1
:1046B0002844606700202067701BE06604F1280032
:1046C0002844A066206A00283DD0D4E90801C4E946
:1046D00006010021216232E0E16EE06981421ED3D1
:1046E000D4E90602A16EFCF7E5FEE16EE069081A66
:1046F000E066A16EE0690844A066E0696067002199
:10470000384604F06FF8206A30B1D4E90801C4E9F2
:1047100006010021216212E00020A06112E0D4E92C
:104720001A12A069FCF7C6FEE06E2067E16EE06930
:10473000411AE161E16EA0690844A06102E0E06E07
:104740000028C9D101E00020A061A06920B169461C
:104750004846FEF741FB99E7002097E7548A00009E
:1047600030B504460D4629466360C869984204D3B3
:10477000886920600B67CB6103E001F128002060AD
:104780008B67002030BD000070B506460D462DB386
:10479000012D1DD0022D02D0032D2DD10DE00121C0
:1047A000084600F0D9FE0021022000F0D5FE0122CB
:1047B00013491448FDF7AAFF1FE00021012000F073
:1047C000CBFE0021022000F0C7FE03F09FFB14E0A7
:1047D00001200D49087002F063FF0EE000BF084998
:1047E000087802F0E5FD012205490648FDF78EFF35
:1047F0000446002CF3D000E000BF00BF70BD0000F5
:10480000400400206088000011000020014602489A
:1048100050F8210070470000AC0600200146014816
:1048200040567047DC06002070B504460D466068AF
:10483000294602682046904770BD000070B50546C5
:104840000DB9094C01E0084C083409E0204600F09D
:1048500001FD064606B904E028467168884700BF96
:10486000F4E700BF70BD00006804002010B50446E6
:104870002CB90120064948700020FFF7DFFF012C0A
:1048800004D1012002498870FFF7D8FF10BD000055
:104890006004002070B5044600212046FEF7A1F810
:1048A000054600212846FEF782F806463046FEF708
:1048B00068F870BD2DE9F04782461F48006800285F
:1048C00036D01D480068056802F08EFE07461B487A
:1048D00004682146384603F081FBC61C184800785E
:1048E00008B902F093FEAE4201D2284600E03046FD
:1048F000044424F07F44204602F070FE02F074FE6F
:1049000080463946404603F069FB00F10309394609
:10491000204603F063FB814509D902F065FE81461C
:1049200002F05CFE2F2002F00BFC03F09DFC01E086
:1049300002F08AFEBDE8F0876400002068000020D5
:104940007600002070B5044601212046FEF749F8A4
:10495000054600212846FEF72AF806463046FEF7AF
:1049600010F870BD70B5044601212046FEF739F8F5
:10497000054601212846FEF71AF806463046FEF79E
:1049800000F870BD2DE9F84F0C464CBB13250126ED
:1049900037464FF00008C146C2460095684602F00F
:1049A00017F9834646EA470040EA880040EA0920B2
:1049B00040EA0A410BF5E060009A40F8221000BF7F
:1049C00000BF13200090684602F002F9054601215D
:1049D000009A01FA02F0C5F80C0500BF00BF00E024
:1049E00000BF00BFBDE8F88F014614480078144AA4
:1049F000127890421DD011480078401C0F4A107068
:104A000010460078022801D1002010700D480B4A92
:104A1000127850F8220008600B4A086812681044A7
:104A2000094A10601046006820F07F4010600120A5
:104A300070470020086000BFFAE700007400002003
:104A4000750000206C0000206800002010B5174899
:104A5000006800F0004028B91448001D006800F00C
:104A6000004010B301201249086000BF11480068DF
:104A70000028FBD012200D49086000BF0D480068D7
:104A80000028FBD012210948001D016000BF094821
:104A900000680028FBD000200549086000BF0548D9
:104AA00000680028FBD0FCF7BDFF10BD001200100D
:104AB00004E5014000E40140014601F08000802847
:104AC00001D1002000E0102001F00F021044C0B21C
:104AD00070470000014601F08000802801D10448A1
:104AE00001E00348903801F00F0200EB021070471C
:104AF0000405002005480068082805D10348001D6A
:104B0000006808B9012070470020FCE73001001060
:104B100005480068082805D10348001D006808B949
:104B2000012070470020FCE73001001005480068B4
:104B3000082805D10348001D006808B90120704706
:104B40000020FCE73001001005480068082805D166
:104B50000348001D006808B9012070470020FCE7E9
:104B60003001001005480068082805D10348001DE1
:104B7000006808B9012070470020FCE730010010F0
:104B800005480068082805D10348001D006808B9D9
:104B9000012070470020FCE7300100100548006844
:104BA000082805D10348001D006808B90120704796
:104BB0000020FCE73001001070B500BF802603F034
:104BC00001FC8020FFF786FF0446A07B03280AD162
:104BD0008020FFF771FF01218140CD43294609481C
:104BE00000F060FD0BE0206848B98020FFF764FF0B
:104BF00001218140CD432946024800F053FD00BF0A
:104C000070BD00003400002010B5812002F00AF9C8
:104C100010BD10B5822002F005F910BD10B583203B
:104C200002F000F910BD10B5842002F0FBF810BDB1
:104C300010B5852002F0F6F810BD10B5862002F000
:104C4000F1F810BD10B5872002F0ECF810BD10B5DA
:104C5000882002F00DF910BD10B502F059F810BD12
:104C600010B5012002F038F910BD10B5022002F095
:104C700033F910BD10B5032002F02EF910BD10B5A8
:104C8000042002F029F910BD10B5052002F024F926
:104C900010BD10B5062002F01FF910BD10B5072099
:104CA00002F01AF910BD0000F8B5082403F08AFBE1
:104CB0002046FFF70FFF0546A87B032815D028687C
:104CC00098B92046FFF7F8FE01218140CE433146D6
:104CD000074800F0E7FC0748006800908DF80240A4
:104CE000684605490968884700BF00BFF8BD000055
:104CF00034000020808900002800002070B500BF2B
:104D000000BF2749096808460146254A116000BFCF
:104D100000BF00BF00BF00BFBFF36F8F00BF00BF69
:104D200000BF00BF00BF00BFBFF34F8F00BF00BF79
:104D300000BF00BF00BF00BF00BFBFF36F8F00BF49
:104D400000BF00BF00BF00BF00BFBFF34F8F00BF59
:104D500000BF00BF044601F0EBFB50B111480068F2
:104D600020F0011004430F48006800F001100D49C5
:104D700008600FE094FAA4F0B0FA80F52846FEF738
:104D8000E9FC06460120A84084432946304603F04A
:104D9000A9FC00BF002CEDD103F03CFB70BD00006E
:104DA0006C7402403C00002010B505480078FFF705
:104DB00083FE044621460248007803F093FC10BDB0
:104DC0002D000020F8B500BF21480068C0B204469D
:104DD00020480078FFF770FE012101FA00F01E491B
:104DE0000988C94389B21D4A12681143084018B1A5
:104DF0001848007803F0DCFB04F0800008B90020BC
:104E000000E08020134908700020FFF755FE0126BE
:104E100086408020FFF750FE012181400E43F5437C
:104E200029460E4800F03EFC8020FFF745FE012198
:104E300001FA00F008490968084307490860084872
:104E4000006800906846074909688847F8BD000077
:104E5000807402402D00002030000020340000202B
:104E60008C8900002800002038B50020009000BF89
:104E70000C48006880B2ADF802008820FFF71CFEE5
:104E8000012484400820FFF717FE012181400C43D4
:104E900005480068044304480460684603490968FB
:104EA000884738BD207502403000002028000020CF
:104EB0007047000038B500BF02F07EF8054628466E
:104EC00002F064F800BF00BF00BF00BFBFF36F8FE8
:104ED00000BF00BF00BF00BF00BF00BFBFF34F8FC8
:104EE00000BF00BF00BF2C4604F4807050B1012009
:104EF00019490870194800680090684618490968FF
:104F0000884700BF04F4007058B1002012490870AF
:104F10001248001D006800906846114909688847DA
:104F200000BF04F48060A8B10B48007890B1002065
:104F30000949087001200B49086000BF582002F0A1
:104F40005DF8064808300068009068460449096822
:104F5000884700BF38BD00002C0000209089000069
:104F6000280000200875024008B500200549087097
:104F700005490870054800680090684604490968BA
:104F8000884708BD2C0000202D00002070890000FB
:104F900028000020F0B5034600241FE0124E3068C0
:104FA00006689E4203D90668F61A06601AE006688B
:104FB0009B1B06683444002606600B4E35680A4F7A
:104FC000C6693E60C66846B10E1926F07F46466047
:104FD000C66886601668C661156000BF0248006832
:104FE0000028DBD100BFF0BD6400002070B504468E
:104FF0000D462A460021204600F009F8A068401C12
:10500000A06070BD01468A68C868801A704710B5F4
:1050100083680B44848823400468E35C137010BDEC
:10502000C26883881A4003689954C268521CC260DF
:105030007047000070B5404C042240A12046FCF7A8
:1050400064FA00283ED1241D06223EA12046FCF72A
:105050005CFAD0B9A41D2046FCF766FA0546B5F502
:105060007A7F01DA294601E04FF47A71012907DDE0
:10507000B5F57A7F01DA294603E04FF47A7100E052
:105080000121084602F08CFB70BD07222FA12046AB
:10509000FCF73BFAA8B9E41D2046FCF745FA0546A3
:1050A000642D01DA284600E06420012805DD642D26
:1050B00001DA284602E0642000E00120254908606A
:1050C000E2E7E1E7052224A12046FCF71EFA10B929
:1050D00002F00AFFD8E7042221A12046FCF715FAC6
:1050E00010B902F013FFCFE709221FA12046FCF7F9
:1050F0000CFAA0B9093404221EA12046FCF705FAD7
:1051000018B9012002F03AFBBEE705221BA1204698
:10511000FCF7FBF910B9002002F030FBB4E70322E2
:1051200018A12046FCF7F1F918B9022000F0F2F9B5
:10513000AAE700BFA8E700002003002073657420E1
:105140000000000064656C61792000007265706584
:10515000617420000C000020737461727400000000
:1051600073746F70000000007363616E2061647679
:1051700020000000747275650000000066616C73A9
:10518000650000006C65640010B51148006800F00F
:10519000070007281AD101200E49086000BF0E48F9
:1051A00000680028FBD00A48006820F00700001DB6
:1051B0004FF01021C1F8040300200649086000BF29
:1051C000054800680028FBD0FCF72CFC10BD00004F
:1051D0000413001004E5014000E4014010B501F0A3
:1051E00033FF10BD10B501F03BFF002001494870AE
:1051F00010BD0000600400202DE9F04704460E4673
:105200009046002722E0384601F06EFD05463846FC
:1052100001F071FD81462046294642580AB101221B
:1052200000E0002282B14846D4F80413014009B1DD
:10523000012100E0002139B12946204601F060FD3E
:105240002846D6E900219047781CC7B24745DADBEB
:10525000BDE8F0870146086808B102680A60704737
:10526000026803E08A4200D170471268002AF9D12F
:1052700003680BB1036800E000230B60016000BF0E
:10528000F2E700002DE9F041064600274748D0F834
:10529000008078E016B13446E66947E0444800787B
:1052A00000EB40014248001D00EBC105001F0078E3
:1052B000401C3F490870084600788978884202D12E
:1052C00000203B4908706C68287801281AD0022811
:1052D00002D0032817D107E0686802F0EDFE00B1A4
:1052E0000127002020744EE007E0304908680021C3
:1052F00001742E4AC169116000BF2C480068002863
:10530000F3D140E000E03EE000BF207C00B13AE095
:10531000A8686060E868A0602869E0606869A061CA
:105320002448007808B10020606000BF224960680E
:105330000968401A20F07F402049884208D21E495F
:105340006068096802F04AFEA168084420600FE026
:1053500019486168006802F041FE0546A068A8424D
:1053600003D9A068401B206001E00020206000BF3E
:1053700000206060A060012020740020E0612046D1
:1053800002F066FE00BF002E84D10948007808496B
:1053900049788842F8D11FB904480068404502D0D6
:1053A0000120BDE8F0810020FBE700006400002040
:1053B000440700207700002068000020FFFF7F00E6
:1053C00000F0DCF802F014F8FFF740FB00BF00F03B
:1053D000C9FC05463DB100BF44A24FF4F071284618
:1053E000FBF718FF00BF00BF002000F0E1FC00BF8A
:1053F00000F0D4FC0028FBD0FEF7E0F800BF3F48E7
:10540000FDF7DAFF05463DB100BF38A240F2E711D3
:105410002846FBF7FFFE00BF00BF00BF00F02AFCDC
:1054200005463DB100BF31A240F2E9112846FBF725
:10543000F1FE00BF00BF324C00BF00BF00BF2046DE
:10544000FDF7E2F905463DB100BF28A24FF4F67121
:105450002846FBF7DFFE00BF00BF00BFFEF774F871
:1054600005463DB100BF21A24FF4F7712846FBF776
:10547000D1FE00BF00BF00BF4FF480722149224817
:10548000FCF7D7FF05463DB100BF18A24FF4F871F5
:105490002846FBF7BFFE00BF00BF00BFFDF762F864
:1054A00005463DB100BF11A24FF4F9712846FBF744
:1054B000B1FE00BF00BF00BF144A00211448FDF731
:1054C00033F805463DB100BF08A240F2F31128466B
:1054D000FBF7A0FE00BF00BF01F0B4FF04E000BF77
:1054E000FDF746FE0028FBD1F9E700002E2E5C2ECA
:1054F0002E5C2E2E5C6D61696E2E6300A488000008
:105500006088000020020020100200207975000051
:1055100080880000F8B505460D48006828440D490C
:1055200051F820000090684601F032FB0446D4F8A0
:105530000465012000998840B043C4F808050120A3
:10554000009988403040C4F80C0500BFF8BD000049
:10555000140000208488000070B504460D46C5F193
:105560000101044A12682244034B53F8220001F05F
:105570003FFB70BD14000020848800002DE9F84F27
:10558000002429E0164800682044164951F82050AC
:10559000012637464FF00008C146C24600956846CE
:1055A00001F0F6FA834646EA470040EA880040EAFE
:1055B000092040EA0A410BF5E060009A40F8221009
:1055C00000BF00BF064909682144064A52F821007D
:1055D000012101F00DFB641C042CD3D3BDE8F88F2E
:1055E000140000208488000010B5044609B90E207C
:1055F00010BD92FBF3F003FB102008B10920F7E780
:10560000216000206060A060A281E38100BFEFE71D
:1056100070B504460D4629462046FBF723FE18B117
:105620002A882168881870BD0020FCE770B50546FF
:105630000C4620886188884204D12846FBF754FE36
:10564000012070BD0020FCE770B504460D462946D8
:105650002046FBF72CFE18B16A882168881870BDB7
:105660000020FCE770B505460C462088618888421A
:1056700004D12846FBF712FE012070BD0020FCE794
:1056800010B504460021204600F017F810BDF8B50B
:1056900004460D466A4629462046FBF77AFE064632
:1056A0000098F8BDF8B504460D466A4629462046DE
:1056B000FBF755FE06460098F8BDF8B504460D46C2
:1056C0006A4629462046FBF74AFE06463046F8BDA4
:1056D000F8B504460D466A4629462046FBF726FEE5
:1056E00006463046F8BDF8B504460D466A462946DA
:1056F0002046FBF77DFE06460098F8BD30B5024611
:105700000B46D40802F00702012090401D5D28409E
:1057100030BD30B50B46C20800F007009C5C012587
:1057200085402C439C5430BD01464FF0804040588A
:1057300008B1012070470020FCE708B500224FF0B7
:1057400080410A500958009100BF08BD0149086016
:1057500070470000080300400149086070470000DE
:1057600004030040012291070A50704770B50546B6
:105770000C46002620780F2818D2DFE800F0080930
:105780001112170A101717171713141516000FE028
:105790000EE02146284602F00BFA064608E007E034
:1057A00006E005E004E003E002E001E0062600BFB9
:1057B00000BF304670BD0000FFB505460C461646DA
:1057C0002046002200BF90F808C0944501DC9446B2
:1057D00004E000F1090702EB420CBC44FB48C0F8AE
:1057E00000C0214600BF00BF009600200190029338
:1057F000039503980068B0F5B17F75D020DC40F2C6
:105800005B17A0EB0702B8426FD010DCB0F5AC7F9D
:105810004DD005DC00B3A0F2571000287ED12BE05C
:10582000A0F25910002861D00128F7D17EE0012AAA
:1058300075D0022A74D0032A73D0042AEED106E16F
:10584000A0F263100B2869D2DFE800F0FEFD68FCCF
:10585000FBFAF9F8F768F60000BF0920039A107107
:10586000DDE90102904208D300BF40F25710039ACD
:105870001060012004B0F0BD00BF009820B1039873
:105880000079DDE90027D0550198401C019000BF48
:1058900000BF0420039A1071DDE90102904207D392
:1058A00000BF4FF4AC70039A10600120E2E700BF24
:1058B000009820B103980079DDE90027D0550198C0
:1058C000401C019000BF00BFC04A106802780398D6
:1058D0000271DDE90102904209D300BF40F2591084
:1058E000039A10600120C5E7CCE03AE000BF0098C1
:1058F00020B103980079DDE90027D0550198401CBC
:10590000019000BF00BF0020039A1071DDE9010281
:1059100090420CD300BF4FF4AD7003E0A4E13BE034
:1059200055E06FE0039A10600120A3E700BF0098E4
:1059300020B103980079DDE90027D0550198401C7B
:10594000019000BF00BF0020039A1071DDE9010241
:10595000904207D300BF40F25B10039A1060012011
:1059600088E700BF009820B103980079DDE900279F
:10597000D0550198401C019000BF00BFFF20039A42
:105980001071DDE90102904207D300BF4FF4AE7001
:10599000039A106001206DE700BF009820B10398C2
:1059A0000079DDE90027D0550198401C019000BF27
:1059B00000BF0120039A1071DDE90102904207D374
:1059C00000BF40F25D10039A1060012052E700BF53
:1059D000009820B103980079DDE90027D05501989F
:1059E000401C019000BF00BF0120039A1071DDE947
:1059F0000102904207D300BF4FF4AF70039A1060CA
:105A0000012037E700BF009820B103980079DDE955
:105A10000027D0550198401C019000BF00BF002016
:105A2000039A1071DDE90102904211D300BF40F2E8
:105A30005F10039A106008E014E100E1E3E0C7E0C2
:105A4000A8E08CE06FE053E037E0012012E700BFF0
:105A5000009820B103980079DDE90027D05501981E
:105A6000401C019000BF00BF0920039A1071DDE9BE
:105A70000102904207D300BF4FF4B170039A106047
:105A80000120F7E600BF009820B103980079DDE916
:105A90000027D0550198401C019000BF00BF212075
:105AA000039A1071DDE90102904207D300BF40F272
:105AB0006310039A10600120DCE600BF009820B15B
:105AC00003980079DDE90027D0550198401C01902A
:105AD00000BF00BF0920039A1071DDE90102904266
:105AE00007D300BF4FF4B270039A10600120C1E6E3
:105AF00000BF009820B103980079DDE90027D05558
:105B00000198401C019000BF00BF087C039A1071EF
:105B1000DDE90102904207D300BF4FF4B370039A4E
:105B200010600120A6E600BF009820B1039800791C
:105B3000DDE90027D0550198401C019000BF00BF4F
:105B4000088A000A039A1071DDE90102904207D326
:105B500000BF40F26710039A106001208AE600BF80
:105B6000009820B103980079DDE90027D05501980D
:105B7000401C019000BF00BF887C039A1071DDE9D2
:105B80000102904207D300BF4FF4B470039A106033
:105B900001206FE600BF009820B103980079DDE98D
:105BA0000027D0550198401C019000BF00BF488AD3
:105BB000000A039A1071DDE90102904209D300BF87
:105BC00040F26910039A1060012053E6340100206E
:105BD00000BF009820B103980079DDE90027D05577
:105BE0000198401C019000BF00BF087D039A10710E
:105BF000DDE90102904207D300BF4FF4B570039A6C
:105C00001060012036E600BF009820B103980079AB
:105C1000DDE90027D0550198401C019000BF00BF6E
:105C2000888A000A039A1071DDE90102904207D3C5
:105C300000BF40F26B10039A106001201AE600BF0B
:105C4000009820B103980079DDE90027D05501982C
:105C5000401C019000BF00BF40F26D10039A10601D
:105C6000012007E600BF00BF00BF0020039A1060BC
:105C700000BFFFE570B51548007808B1002070BD81
:105C80001348144908601448486002200881002025
:105C90004881C8604FF080500069486108464069FB
:105CA0004FF08051496948430A49086101F032FDCB
:105CB0000A4C00BF00BF2046FCF7A6FD054615B9FB
:105CC0000120024908702846D9E70000630100203E
:105CD00000100000780A0020A87C0000488B00001B
:105CE00010B50020FDF716FD06484068401E054926
:105CF00048600846406808B9FFF774FA0020FDF7CD
:105D00000EFD10BD6004002010B504461448407814
:105D100078B114B10020616888470020FDF7FAFCD3
:105D20000F484068401C0E4948600020FDF7F7FC12
:105D300015E00020FDF7EEFC24B1214608480830AC
:105D4000FFF78EFA0648406808B9FFF747FA04489B
:105D50004068401C024948600020FDF7E0FC10BD8F
:105D60006004002010B500240A48007808B185249A
:105D70000EE000200749886048600861C860064856
:105D800001F08AF9044601F051F901200149087037
:105D9000204610BD600400206D48000000BF00BF19
:105DA00002480068C0F3004000BF7047180400407C
:105DB00010B504461448807878B114B101206168A8
:105DC00088470020FDF7A6FC0F48C068401C0E491C
:105DD000C8600020FDF7A3FC15E00020FDF79AFC49
:105DE00024B1214608481030FFF73AFA0648C06847
:105DF00008B901F08DF90448C068401C0249C86028
:105E00000020FDF78CFC10BD6004002070B5054635
:105E100005B9054D284601F037FA044614B90120AA
:105E200002490870204670BDB088000020000020A4
:105E300010B5044600F007F8204601F0A7FA01F07B
:105E40009FFA002010BD10B501F094FA01F0AAFAF3
:105E500010BD000010B5024801F0C0F810BD0000F0
:105E60000414800170B504460D46164629464A685A
:105E70009A4204D2002060600868206007E06360F6
:105E800008682060D21A4A600868184408609E4278
:105E900002D10AB1012070BD0020FCE710B500F06E
:105EA00043FD00BF10480068044601F091F800BFB0
:105EB00000200E49086000BF00BF00BF00BFBFF355
:105EC0006F8F00BF00BF00BF00BF00BF00BFBFF3A8
:105ED0004F8F00BF00BF00BF00BF02F073FA012068
:105EE0000349087010BD00000473024000750240B1
:105EF0002400002010B54FF4006001F047F800F0D6
:105F00001BFBB8B10020FDF705FC5D48006858B9DF
:105F100049F275305A49086003205A49086049F22D
:105F200075305749086002E0032056490860002098
:105F3000FDF7F5FB00BF0120C8B10020FDF7EAFB2B
:105F40004F48006860B949F275304D490860C0207B
:105F50004B491431086049F275304949086003E043
:105F6000C0204749143108600020FDF7D8FB00BF6E
:105F700001204549086000BF00BF00BF00BFBFF35C
:105F80006F8F00BF00BF00BF00BF00BF00BFBFF3E7
:105F90004F8F00BF00BF00BF00BF00BF01F00CF873
:105FA00000F400600028F9D04FF4006000F0EEFF2C
:105FB00000BF0120C8B10020FDF7ACFB30480068ED
:105FC00060B949F275302E49086000202C4914311F
:105FD000086049F275302A49086003E0002028492A
:105FE000143108600020FDF79AFB00F0A5FAB8B163
:105FF0000020FDF78FFB2248006858B949F2753040
:106000001F49086000201F49086049F275301C498B
:10601000086002E000201B4908600020FDF77FFBBC
:1060200000BF0120B0B140F2E37018490860402081
:10603000091D086000BF00BF00BFBFF36F8F00BF26
:1060400000BF00BF00BF00BF00BFBFF34F8F00BF46
:1060500000BF00BF80200C491C31086000BF40F227
:10606000FF100B49086000200A49086002F0AAF9F5
:1060700000200949087002200849087010BD00007E
:1060800000EC064014ED0640007502400078024026
:1060900030000020340000202D00002024000020CB
:1060A00010B50446204602F083FA10BD70B50446D0
:1060B000204602F07DFA00BF00BF204600F00F012D
:1060C00000F08002802A07D1144A126801238B4015
:1060D0009A43124B1A6008E0104A121D12680123FD
:1060E0008B409A430D4B1B1D1A6000BF00BF00BFC1
:1060F000BFF36F8F00BF00BF00BF00BF00BF00BF76
:10610000BFF34F8F00BF00BF00BF00BF204600F0AD
:1061100059F9054600F05CFF70BD000010750240A3
:1061200010B501460122104B196000BF00BF00BF2F
:1061300000BFBFF34F8F00BF00BF00BF41EA022383
:10614000094C236000BF00BF00BFBFF36F8F00BFCB
:1061500000BF00BF00BF00BF00BFBFF34F8F00BF35
:1061600000BF00BF00BF10BD0C75024070B50446F3
:10617000204600F027F9054600F030FF204600F0E9
:1061800033FE00B170BD00BF00BF204600F00F011C
:1061900000F08002802A07D1204A126801238B4038
:1061A0001A431E4B1A6008E01C4A121D1268012394
:1061B0008B401A43194B1B1D1A6000BF00BF00BF64
:1061C000BFF36F8F00BF00BF00BF00BF00BF00BFA5
:1061D000BFF34F8F00BF00BF00BF00BF04F00F0030
:1061E000C8B104F08000B0B904F00F00082812DA3A
:1061F0000020FDF78FFA204600F012FC2046FEF743
:106200005BFC01218140064800688843044908601E
:106210000020FDF784FA00BFB4E7000010750240CB
:106220003400002070B5044600BF00BF2546284654
:1062300000F0DAFD70BD00002DE9F04106460F4682
:106240003046FEF739FC80460020FDF763FA06F081
:106250000F0028B918480078864201D0102425E0A4
:1062600016480088C04380B21549096808430121D7
:1062700001FA08F1084008B1112417E03046FEF792
:1062800029FC05460020A8603868286078686860A6
:106290000020A873012000FA08F0094909680843A2
:1062A00007490860002402F055FA00BF0020FDF7FE
:1062B00036FA2046BDE8F0812D0000203000002095
:1062C0003400002070B504462046FEF703FC054666
:1062D000A88970BD70B505460C462846FEF7FAFB46
:1062E0000646B48170BD000000BF00BF014641F406
:1062F00080720A4B1A6000BF00BF00BF00BFBFF32F
:106300006F8F00BF00BF00BF00BF00BF00BFBFF363
:106310004F8F00BF00BF00BF00BF7047187502401D
:1063200010B50146084600BF00BF00F00F02082A62
:1063300001DB002213E0024602F00F0302F08004AA
:10634000802C03D1074C54F8234003E0054C24343F
:1063500054F82340012C01D1012200E00022104614
:1063600010BD00002074024000BF00BF0146084677
:106370000A4A116000BF00BF00BF00BFBFF36F8FAC
:1063800000BF00BF00BF00BF00BF00BFBFF34F8F03
:1063900000BF00BF00BF00BF70470000187502407B
:1063A000014601F08000802801D1044800E0044843
:1063B00001F00F0230F8120070470000368900002B
:1063C00048890000014601F08000802801D104487E
:1063D00000E0044801F00F02825C01209040704709
:1063E0005A890000638900002DE9F04705460E46F2
:1063F0002846FEF761FB81460020FDF78BF905F08A
:106400000F0028B932480078854201D0102758E0A3
:1064100030480088C04380B22F49096808430121F1
:1064200001FA09F1084008B111274AE02846FEF7B1
:1064300051FB044605F08000802824D105F00F00B0
:1064400000EB4000254901EB8008306800F0604116
:10645000B1F1005F01D1012100E0002149B1307AA2
:1064600000F0010010B91E48206015E01D482060B2
:1064700012E0307A00F0010010B91B4820600BE0F8
:106480001A48206008E005F00F0000EB40001849B2
:1064900001EB80081748206096E8070088E80700AD
:1064A000C4F804800020A060A073012000FA09F065
:1064B00009490968084308490860002702F04AF9B9
:1064C00000BF0020FDF72BF93846BDE8F08700003B
:1064D0002D00002030000020340000209405002012
:1064E0007B660000AB660000ED65000031660000D1
:1064F00000060020655E00000146084600BF00BFA0
:1065000000F00F02082A08DB084B1A6802F48033F7
:10651000B3F5803F00D1002205E0044A203A00F0A4
:106520000F0352F82320104670470000C074024049
:1065300010B500F041F810BD10B500BF00F02CF808
:1065400068B11448007800F0F000102807D1114815
:10655000001D007800F0F00008B9012000E00020E4
:1065600098B900BF00F018F868B10A48007800F048
:10657000F000202807D10748001D007800F0F00047
:1065800008B9012000E0002008B1012010BD002062
:10659000FCE70000E80F00F006480078082807D163
:1065A0000448001D007800F00F0008B90120704772
:1065B0000020FCE7E00F00F010B5FFF7EDFF60B141
:1065C0000748007800F0F00038B90548001D007851
:1065D00000F0F00008B9012010BD0020FCE7000029
:1065E000E80F00F0004870476C0600202DE9F047E6
:1065F00006460F4690463C466568FFF7F3FF814626
:10660000454500D945462A4648462168FAF752FFD3
:10661000C6F8009075606068401B60602068284480
:106620002060606810B10120BDE8F0870020FBE722
:106630002DE9F04706460F4690463D466C68FFF749
:10664000D1FF8146444500D944463CB122464846E4
:106650002968FAF72FFFC6F8009001E000203060AB
:1066600074606868001B686028682044286014B162
:106670000120BDE8F0870020FBE730B503460D465A
:10668000144629464A68A24200D922460868186082
:106690005A604868801A4860086810440860486872
:1066A00008B1012030BD0020FCE730B503460D469F
:1066B000144629464A68A24200D922460AB9002057
:1066C00000E0086818605A604868801A48600868E6
:1066D000104408600AB1012030BD0020FCE7000032
:1066E0002DE9F041064616B90720BDE8F0812148A2
:1066F000007808B10820F8E71F48066001201D490E
:106700000870002417E044F0800707F00F00082805
:1067100002DB4FF4007000E0402001463846FFF7EE
:10672000D9FD3846FEF7D6F905460020A873286043
:10673000A860601CC4B2092CE5DB002416E02746E3
:1067400007F00F00082802DB4FF4007000E0402043
:1067500001463846FFF7BEFD3846FEF7BBF9054651
:106760000020A8732860A860601CC4B2092CE6DB76
:106770000020BAE724000020280000200348007809
:10678000022801DB012070470020FCE724000020E4
:1067900003480078012801DB012070470020FCE756
:1067A0002400002001480078704700002D000020E0
:1067B00010B5502000F022FC10BD10B5FFF7B8FE58
:1067C00078B100BFEFF31080044672B64C2000F0A1
:1067D00015FC4C2000F012FC204680F3108800BF0E
:1067E00002E04C2000F00AFC10BD00000021016016
:1067F000416000BF17490968C9B2017000BF15495F
:10680000091D0968C9B2417000BF124A08321268F6
:1068100091B2104A0C32126841EA022292B24280CE
:1068200000BF0C4A1032126891B20A4A1432126840
:1068300041EA022292B2828000BF064A18321268F0
:1068400091B2044A1C32126841EA022292B2C2801A
:10685000704700008074024010B5542000F0CEFB59
:1068600010BD00002DE9F0410446002028490870C1
:10687000284D14B9FFF75CFE08B145F40015284611
:1068800000F0ACFB2722072310461946002809DA3E
:106890004E074FEA166C204E00F00F073F1F06F818
:1068A00007C003E04E07370E1C4E375400BF00BF31
:1068B000272000BF00F01F0201219140184A430920
:1068C00042F8231000BF00BF00F01F0201219140D9
:1068D0004209920002F1E022C2F8001100BF00BF9D
:1068E00000BF01200F49086000BF00BF00BF00BF0C
:1068F000BFF36F8F00BF00BF00BF00BF00BF00BF6E
:10690000BFF34F8F00BF00BF00BF00BFBDE8F081E5
:106910002C0000200714C00118ED00E000E400E0A6
:1069200080E200E00475024010B52720FBF796FADC
:1069300030B301F0ADFE00BF00201249086000BF77
:1069400000BF00BF00BFBFF36F8F00BF00BF00BF1D
:1069500000BF00BF00BFBFF34F8F00BF00BF00BF2D
:1069600000BF272000BF00F01F0201219140064A0E
:10697000430942F8231000BF00BF501700F028FB66
:1069800010BD00000475024080E100E010B5002455
:106990000020FCF7BFFE1B48007848B301F078FEEA
:1069A00000F00AFB00F4007010BB00BF0120164984
:1069B000086000BF00F000FB00F4007028B100BFC9
:1069C00000201149086000BF17E0012400BF01202A
:1069D00070B10E48006860B949F275300B49086023
:1069E00000200A491431086049F2753007490860EF
:1069F00003E000200549143108600020FCF78FFEF9
:106A0000204610BD2C0000202C75024000EC0640F2
:106A100010B5024800F0DCFA10BD0000041480013B
:106A200010B5044600BFFFF7C7FDC0B10020FCF75A
:106A300071FE2046FEF740F8012181401F480068A2
:106A400088431E4908602007C00E00F2C5701C492B
:106A500008600020091D0860FCF761FE2CE00020A2
:106A6000FCF758FE2046FEF727F801218140134825
:106A7000006888431149086004F00F00082818DAFC
:106A8000204600220F4900F00F0341F8232000BFE9
:106A900000BF00BF00BFBFF36F8F00BF00BF00BFCC
:106AA00000BF00BF00BFBFF34F8F00BF00BF00BFDC
:106AB00000BF0020FCF733FE10BD000030000020B6
:106AC00000780240A074024006480078012801D0F6
:106AD000082070470020044908600249087000BF80
